{
	"data": {
		"bytecode": {
			"linkReferences": {},
			"object": "6080604052606460005534801561001557600080fd5b5061041f806100256000396000f3fe608060405234801561001057600080fd5b50600436106100575760003560e01c8063209877671461005c5780632509f77c146100785780634e70b1dc14610094578063565dda7e146100b2578063b8bd717f146100bc575b600080fd5b610076600480360381019061007191906101ea565b6100d8565b005b610092600480360381019061008d91906101ea565b610129565b005b61009c610174565b6040516100a991906102e4565b60405180910390f35b6100ba61017a565b005b6100d660048036038101906100d191906101ea565b61018f565b005b600a811015610126576001811415610125576040517f08c379a000000000000000000000000000000000000000000000000000000000815260040161011c906102a4565b60405180910390fd5b5b50565b600a8111156101715733816040517fe2399bb800000000000000000000000000000000000000000000000000000000815260040161016892919061027b565b60405180910390fd5b50565b60005481565b60646000541461018d5761018c61034c565b5b565b600a81106101d2576040517f08c379a00000000000000000000000000000000000000000000000000000000081526004016101c9906102c4565b60405180910390fd5b50565b6000813590506101e4816103d2565b92915050565b600060208284031215610200576101ff61037b565b5b600061020e848285016101d5565b91505092915050565b61022081610310565b82525050565b60006102336007836102ff565b915061023e82610380565b602082019050919050565b60006102566007836102ff565b9150610261826103a9565b602082019050919050565b61027581610342565b82525050565b60006040820190506102906000830185610217565b61029d602083018461026c565b9392505050565b600060208201905081810360008301526102bd81610226565b9050919050565b600060208201905081810360008301526102dd81610249565b9050919050565b60006020820190506102f9600083018461026c565b92915050565b600082825260208201905092915050565b600061031b82610322565b9050919050565b600073ffffffffffffffffffffffffffffffffffffffff82169050919050565b6000819050919050565b7f4e487b7100000000000000000000000000000000000000000000000000000000600052600160045260246000fd5b600080fd5b7f5f69203d3d203100000000000000000000000000000000000000000000000000600082015250565b7f5f69203e20313000000000000000000000000000000000000000000000000000600082015250565b6103db81610342565b81146103e657600080fd5b5056fea2646970667358221220eb1489b50d5b7c92ac8b0695530f093bbbd762bed5e04f59dc37ae8c14be379164736f6c63430008070033",
			"opcodes": "PUSH1 0x80 PUSH1 0x40 MSTORE PUSH1 0x64 PUSH1 0x0 SSTORE CALLVALUE DUP1 ISZERO PUSH2 0x15 JUMPI PUSH1 0x0 DUP1 REVERT JUMPDEST POP PUSH2 0x41F DUP1 PUSH2 0x25 PUSH1 0x0 CODECOPY PUSH1 0x0 RETURN INVALID PUSH1 0x80 PUSH1 0x40 MSTORE CALLVALUE DUP1 ISZERO PUSH2 0x10 JUMPI PUSH1 0x0 DUP1 REVERT JUMPDEST POP PUSH1 0x4 CALLDATASIZE LT PUSH2 0x57 JUMPI PUSH1 0x0 CALLDATALOAD PUSH1 0xE0 SHR DUP1 PUSH4 0x20987767 EQ PUSH2 0x5C JUMPI DUP1 PUSH4 0x2509F77C EQ PUSH2 0x78 JUMPI DUP1 PUSH4 0x4E70B1DC EQ PUSH2 0x94 JUMPI DUP1 PUSH4 0x565DDA7E EQ PUSH2 0xB2 JUMPI DUP1 PUSH4 0xB8BD717F EQ PUSH2 0xBC JUMPI JUMPDEST PUSH1 0x0 DUP1 REVERT JUMPDEST PUSH2 0x76 PUSH1 0x4 DUP1 CALLDATASIZE SUB DUP2 ADD SWAP1 PUSH2 0x71 SWAP2 SWAP1 PUSH2 0x1EA JUMP JUMPDEST PUSH2 0xD8 JUMP JUMPDEST STOP JUMPDEST PUSH2 0x92 PUSH1 0x4 DUP1 CALLDATASIZE SUB DUP2 ADD SWAP1 PUSH2 0x8D SWAP2 SWAP1 PUSH2 0x1EA JUMP JUMPDEST PUSH2 0x129 JUMP JUMPDEST STOP JUMPDEST PUSH2 0x9C PUSH2 0x174 JUMP JUMPDEST PUSH1 0x40 MLOAD PUSH2 0xA9 SWAP2 SWAP1 PUSH2 0x2E4 JUMP JUMPDEST PUSH1 0x40 MLOAD DUP1 SWAP2 SUB SWAP1 RETURN JUMPDEST PUSH2 0xBA PUSH2 0x17A JUMP JUMPDEST STOP JUMPDEST PUSH2 0xD6 PUSH1 0x4 DUP1 CALLDATASIZE SUB DUP2 ADD SWAP1 PUSH2 0xD1 SWAP2 SWAP1 PUSH2 0x1EA JUMP JUMPDEST PUSH2 0x18F JUMP JUMPDEST STOP JUMPDEST PUSH1 0xA DUP2 LT ISZERO PUSH2 0x126 JUMPI PUSH1 0x1 DUP2 EQ ISZERO PUSH2 0x125 JUMPI PUSH1 0x40 MLOAD PUSH32 0x8C379A000000000000000000000000000000000000000000000000000000000 DUP2 MSTORE PUSH1 0x4 ADD PUSH2 0x11C SWAP1 PUSH2 0x2A4 JUMP JUMPDEST PUSH1 0x40 MLOAD DUP1 SWAP2 SUB SWAP1 REVERT JUMPDEST JUMPDEST POP JUMP JUMPDEST PUSH1 0xA DUP2 GT ISZERO PUSH2 0x171 JUMPI CALLER DUP2 PUSH1 0x40 MLOAD PUSH32 0xE2399BB800000000000000000000000000000000000000000000000000000000 DUP2 MSTORE PUSH1 0x4 ADD PUSH2 0x168 SWAP3 SWAP2 SWAP1 PUSH2 0x27B JUMP JUMPDEST PUSH1 0x40 MLOAD DUP1 SWAP2 SUB SWAP1 REVERT JUMPDEST POP JUMP JUMPDEST PUSH1 0x0 SLOAD DUP2 JUMP JUMPDEST PUSH1 0x64 PUSH1 0x0 SLOAD EQ PUSH2 0x18D JUMPI PUSH2 0x18C PUSH2 0x34C JUMP JUMPDEST JUMPDEST JUMP JUMPDEST PUSH1 0xA DUP2 LT PUSH2 0x1D2 JUMPI PUSH1 0x40 MLOAD PUSH32 0x8C379A000000000000000000000000000000000000000000000000000000000 DUP2 MSTORE PUSH1 0x4 ADD PUSH2 0x1C9 SWAP1 PUSH2 0x2C4 JUMP JUMPDEST PUSH1 0x40 MLOAD DUP1 SWAP2 SUB SWAP1 REVERT JUMPDEST POP JUMP JUMPDEST PUSH1 0x0 DUP2 CALLDATALOAD SWAP1 POP PUSH2 0x1E4 DUP2 PUSH2 0x3D2 JUMP JUMPDEST SWAP3 SWAP2 POP POP JUMP JUMPDEST PUSH1 0x0 PUSH1 0x20 DUP3 DUP5 SUB SLT ISZERO PUSH2 0x200 JUMPI PUSH2 0x1FF PUSH2 0x37B JUMP JUMPDEST JUMPDEST PUSH1 0x0 PUSH2 0x20E DUP5 DUP3 DUP6 ADD PUSH2 0x1D5 JUMP JUMPDEST SWAP2 POP POP SWAP3 SWAP2 POP POP JUMP JUMPDEST PUSH2 0x220 DUP2 PUSH2 0x310 JUMP JUMPDEST DUP3 MSTORE POP POP JUMP JUMPDEST PUSH1 0x0 PUSH2 0x233 PUSH1 0x7 DUP4 PUSH2 0x2FF JUMP JUMPDEST SWAP2 POP PUSH2 0x23E DUP3 PUSH2 0x380 JUMP JUMPDEST PUSH1 0x20 DUP3 ADD SWAP1 POP SWAP2 SWAP1 POP JUMP JUMPDEST PUSH1 0x0 PUSH2 0x256 PUSH1 0x7 DUP4 PUSH2 0x2FF JUMP JUMPDEST SWAP2 POP PUSH2 0x261 DUP3 PUSH2 0x3A9 JUMP JUMPDEST PUSH1 0x20 DUP3 ADD SWAP1 POP SWAP2 SWAP1 POP JUMP JUMPDEST PUSH2 0x275 DUP2 PUSH2 0x342 JUMP JUMPDEST DUP3 MSTORE POP POP JUMP JUMPDEST PUSH1 0x0 PUSH1 0x40 DUP3 ADD SWAP1 POP PUSH2 0x290 PUSH1 0x0 DUP4 ADD DUP6 PUSH2 0x217 JUMP JUMPDEST PUSH2 0x29D PUSH1 0x20 DUP4 ADD DUP5 PUSH2 0x26C JUMP JUMPDEST SWAP4 SWAP3 POP POP POP JUMP JUMPDEST PUSH1 0x0 PUSH1 0x20 DUP3 ADD SWAP1 POP DUP2 DUP2 SUB PUSH1 0x0 DUP4 ADD MSTORE PUSH2 0x2BD DUP2 PUSH2 0x226 JUMP JUMPDEST SWAP1 POP SWAP2 SWAP1 POP JUMP JUMPDEST PUSH1 0x0 PUSH1 0x20 DUP3 ADD SWAP1 POP DUP2 DUP2 SUB PUSH1 0x0 DUP4 ADD MSTORE PUSH2 0x2DD DUP2 PUSH2 0x249 JUMP JUMPDEST SWAP1 POP SWAP2 SWAP1 POP JUMP JUMPDEST PUSH1 0x0 PUSH1 0x20 DUP3 ADD SWAP1 POP PUSH2 0x2F9 PUSH1 0x0 DUP4 ADD DUP5 PUSH2 0x26C JUMP JUMPDEST SWAP3 SWAP2 POP POP JUMP JUMPDEST PUSH1 0x0 DUP3 DUP3 MSTORE PUSH1 0x20 DUP3 ADD SWAP1 POP SWAP3 SWAP2 POP POP JUMP JUMPDEST PUSH1 0x0 PUSH2 0x31B DUP3 PUSH2 0x322 JUMP JUMPDEST SWAP1 POP SWAP2 SWAP1 POP JUMP JUMPDEST PUSH1 0x0 PUSH20 0xFFFFFFFFFFFFFFFFFFFFFFFFFFFFFFFFFFFFFFFF DUP3 AND SWAP1 POP SWAP2 SWAP1 POP JUMP JUMPDEST PUSH1 0x0 DUP2 SWAP1 POP SWAP2 SWAP1 POP JUMP JUMPDEST PUSH32 0x4E487B7100000000000000000000000000000000000000000000000000000000 PUSH1 0x0 MSTORE PUSH1 0x1 PUSH1 0x4 MSTORE PUSH1 0x24 PUSH1 0x0 REVERT JUMPDEST PUSH1 0x0 DUP1 REVERT JUMPDEST PUSH32 0x5F69203D3D203100000000000000000000000000000000000000000000000000 PUSH1 0x0 DUP3 ADD MSTORE POP JUMP JUMPDEST PUSH32 0x5F69203E20313000000000000000000000000000000000000000000000000000 PUSH1 0x0 DUP3 ADD MSTORE POP JUMP JUMPDEST PUSH2 0x3DB DUP2 PUSH2 0x342 JUMP JUMPDEST DUP2 EQ PUSH2 0x3E6 JUMPI PUSH1 0x0 DUP1 REVERT JUMPDEST POP JUMP INVALID LOG2 PUSH5 0x6970667358 0x22 SLT KECCAK256 0xEB EQ DUP10 0xB5 0xD JUMPDEST PUSH29 0x92AC8B0695530F093BBBD762BED5E04F59DC37AE8C14BE379164736F6C PUSH4 0x43000807 STOP CALLER "
		},
		"gasEstimates": {
			"creation": {
				"codeDepositCost": "211000",
				"executionCost": "22357",
				"totalCost": "233357"
			},
			"external": {
				"customError(uint256)": "infinite",
				"num()": "2451",
				"testRequire(uint256)": "782",
				"testRevert(uint256)": "722",
				"toAsser()": "2340"
			}
		},
		"methodIdentifiers": {
			"customError(uint256)": "2509f77c",
			"num()": "4e70b1dc",
			"testRequire(uint256)": "b8bd717f",
			"testRevert(uint256)": "20987767",
			"toAsser()": "565dda7e"
		}
	},
	"abi": [
		{
			"inputs": [
				{
					"internalType": "address",
					"name": "caller",
					"type": "address"
				},
				{
					"internalType": "uint256",
					"name": "_i",
					"type": "uint256"
				}
			],
			"name": "MyError",
			"type": "error"
		},
		{
			"inputs": [
				{
					"internalType": "uint256",
					"name": "_i",
					"type": "uint256"
				}
			],
			"name": "customError",
			"outputs": [],
			"stateMutability": "view",
			"type": "function"
		},
		{
			"inputs": [],
			"name": "num",
			"outputs": [
				{
					"internalType": "uint256",
					"name": "",
					"type": "uint256"
				}
			],
			"stateMutability": "view",
			"type": "function"
		},
		{
			"inputs": [
				{
					"internalType": "uint256",
					"name": "_i",
					"type": "uint256"
				}
			],
			"name": "testRequire",
			"outputs": [],
			"stateMutability": "pure",
			"type": "function"
		},
		{
			"inputs": [
				{
					"internalType": "uint256",
					"name": "_i",
					"type": "uint256"
				}
			],
			"name": "testRevert",
			"outputs": [],
			"stateMutability": "pure",
			"type": "function"
		},
		{
			"inputs": [],
			"name": "toAsser",
			"outputs": [],
			"stateMutability": "view",
			"type": "function"
		}
	]
}