{
	"contracts/MyFirstContract.sol": {
		"Bank": {
			"abi": [
				{
					"inputs": [
						{
							"internalType": "uint256",
							"name": "_amount",
							"type": "uint256"
						}
					],
					"stateMutability": "nonpayable",
					"type": "constructor"
				},
				{
					"anonymous": false,
					"inputs": [
						{
							"indexed": false,
							"internalType": "uint256",
							"name": "oldValue",
							"type": "uint256"
						},
						{
							"indexed": false,
							"internalType": "uint256",
							"name": "newValue",
							"type": "uint256"
						}
					],
					"name": "ValueChanged",
					"type": "event"
				},
				{
					"inputs": [],
					"name": "balance",
					"outputs": [
						{
							"internalType": "uint256",
							"name": "",
							"type": "uint256"
						}
					],
					"stateMutability": "view",
					"type": "function"
				},
				{
					"inputs": [
						{
							"internalType": "uint256",
							"name": "_amount",
							"type": "uint256"
						}
					],
					"name": "deposit",
					"outputs": [],
					"stateMutability": "nonpayable",
					"type": "function"
				},
				{
					"inputs": [],
					"name": "loan",
					"outputs": [
						{
							"internalType": "bool",
							"name": "",
							"type": "bool"
						}
					],
					"stateMutability": "view",
					"type": "function"
				},
				{
					"inputs": [
						{
							"internalType": "uint256",
							"name": "_amount",
							"type": "uint256"
						}
					],
					"name": "withdraw",
					"outputs": [],
					"stateMutability": "nonpayable",
					"type": "function"
				}
			],
			"devdoc": {
				"kind": "dev",
				"methods": {},
				"version": 1
			},
			"evm": {
				"assembly": "    /* \"contracts/MyFirstContract.sol\":290:1281  contract Bank is Regulator {... */\n  mstore(0x40, 0x80)\n    /* \"contracts/MyFirstContract.sol\":396:409  4_292_000_000 */\n  0xffd2b900\n    /* \"contracts/MyFirstContract.sol\":378:409  uint32 myNumber = 4_292_000_000 */\n  0x01\n  exp(0x0100, 0x14)\n  dup2\n  sload\n  dup2\n  0xffffffff\n  mul\n  not\n  and\n  swap1\n  dup4\n  0xffffffff\n  and\n  mul\n  or\n  swap1\n  sstore\n  pop\n    /* \"contracts/MyFirstContract.sol\":557:646  constructor(uint256 _amount) {... */\n  callvalue\n  dup1\n  iszero\n  tag_1\n  jumpi\n  0x00\n  dup1\n  revert\ntag_1:\n  pop\n  mload(0x40)\n  sub(codesize, bytecodeSize)\n  dup1\n  bytecodeSize\n  dup4\n  codecopy\n  dup2\n  dup2\n  add\n  0x40\n  mstore\n  dup2\n  add\n  swap1\n  tag_2\n  swap2\n  swap1\n  tag_3\n  jump\t// in\ntag_2:\n    /* \"contracts/MyFirstContract.sol\":604:611  _amount */\n  dup1\n    /* \"contracts/MyFirstContract.sol\":596:601  value */\n  0x00\n    /* \"contracts/MyFirstContract.sol\":596:611  value = _amount */\n  dup2\n  swap1\n  sstore\n  pop\n    /* \"contracts/MyFirstContract.sol\":629:639  msg.sender */\n  caller\n    /* \"contracts/MyFirstContract.sol\":621:626  owner */\n  0x01\n  0x00\n    /* \"contracts/MyFirstContract.sol\":621:639  owner = msg.sender */\n  0x0100\n  exp\n  dup2\n  sload\n  dup2\n  0xffffffffffffffffffffffffffffffffffffffff\n  mul\n  not\n  and\n  swap1\n  dup4\n  0xffffffffffffffffffffffffffffffffffffffff\n  and\n  mul\n  or\n  swap1\n  sstore\n  pop\n    /* \"contracts/MyFirstContract.sol\":557:646  constructor(uint256 _amount) {... */\n  pop\n    /* \"contracts/MyFirstContract.sol\":290:1281  contract Bank is Regulator {... */\n  jump(tag_6)\n    /* \"#utility.yul\":7:150   */\ntag_8:\n    /* \"#utility.yul\":64:69   */\n  0x00\n    /* \"#utility.yul\":95:101   */\n  dup2\n    /* \"#utility.yul\":89:102   */\n  mload\n    /* \"#utility.yul\":80:102   */\n  swap1\n  pop\n    /* \"#utility.yul\":111:144   */\n  tag_10\n    /* \"#utility.yul\":138:143   */\n  dup2\n    /* \"#utility.yul\":111:144   */\n  tag_11\n  jump\t// in\ntag_10:\n    /* \"#utility.yul\":7:150   */\n  swap3\n  swap2\n  pop\n  pop\n  jump\t// out\n    /* \"#utility.yul\":156:507   */\ntag_3:\n    /* \"#utility.yul\":226:232   */\n  0x00\n    /* \"#utility.yul\":275:277   */\n  0x20\n    /* \"#utility.yul\":263:272   */\n  dup3\n    /* \"#utility.yul\":254:261   */\n  dup5\n    /* \"#utility.yul\":250:273   */\n  sub\n    /* \"#utility.yul\":246:278   */\n  slt\n    /* \"#utility.yul\":243:362   */\n  iszero\n  tag_13\n  jumpi\n    /* \"#utility.yul\":281:360   */\n  tag_14\n  tag_15\n  jump\t// in\ntag_14:\n    /* \"#utility.yul\":243:362   */\ntag_13:\n    /* \"#utility.yul\":401:402   */\n  0x00\n    /* \"#utility.yul\":426:490   */\n  tag_16\n    /* \"#utility.yul\":482:489   */\n  dup5\n    /* \"#utility.yul\":473:479   */\n  dup3\n    /* \"#utility.yul\":462:471   */\n  dup6\n    /* \"#utility.yul\":458:480   */\n  add\n    /* \"#utility.yul\":426:490   */\n  tag_8\n  jump\t// in\ntag_16:\n    /* \"#utility.yul\":416:490   */\n  swap2\n  pop\n    /* \"#utility.yul\":372:500   */\n  pop\n    /* \"#utility.yul\":156:507   */\n  swap3\n  swap2\n  pop\n  pop\n  jump\t// out\n    /* \"#utility.yul\":594:671   */\ntag_19:\n    /* \"#utility.yul\":631:638   */\n  0x00\n    /* \"#utility.yul\":660:665   */\n  dup2\n    /* \"#utility.yul\":649:665   */\n  swap1\n  pop\n    /* \"#utility.yul\":594:671   */\n  swap2\n  swap1\n  pop\n  jump\t// out\n    /* \"#utility.yul\":800:917   */\ntag_15:\n    /* \"#utility.yul\":909:910   */\n  0x00\n    /* \"#utility.yul\":906:907   */\n  dup1\n    /* \"#utility.yul\":899:911   */\n  revert\n    /* \"#utility.yul\":923:1045   */\ntag_11:\n    /* \"#utility.yul\":996:1020   */\n  tag_25\n    /* \"#utility.yul\":1014:1019   */\n  dup2\n    /* \"#utility.yul\":996:1020   */\n  tag_19\n  jump\t// in\ntag_25:\n    /* \"#utility.yul\":989:994   */\n  dup2\n    /* \"#utility.yul\":986:1021   */\n  eq\n    /* \"#utility.yul\":976:1039   */\n  tag_26\n  jumpi\n    /* \"#utility.yul\":1035:1036   */\n  0x00\n    /* \"#utility.yul\":1032:1033   */\n  dup1\n    /* \"#utility.yul\":1025:1037   */\n  revert\n    /* \"#utility.yul\":976:1039   */\ntag_26:\n    /* \"#utility.yul\":923:1045   */\n  pop\n  jump\t// out\n    /* \"contracts/MyFirstContract.sol\":290:1281  contract Bank is Regulator {... */\ntag_6:\n  dataSize(sub_0)\n  dup1\n  dataOffset(sub_0)\n  0x00\n  codecopy\n  0x00\n  return\nstop\n\nsub_0: assembly {\n        /* \"contracts/MyFirstContract.sol\":290:1281  contract Bank is Regulator {... */\n      mstore(0x40, 0x80)\n      callvalue\n      dup1\n      iszero\n      tag_1\n      jumpi\n      0x00\n      dup1\n      revert\n    tag_1:\n      pop\n      jumpi(tag_2, lt(calldatasize, 0x04))\n      shr(0xe0, calldataload(0x00))\n      dup1\n      0x2e1a7d4d\n      eq\n      tag_3\n      jumpi\n      dup1\n      0xb69ef8a8\n      eq\n      tag_4\n      jumpi\n      dup1\n      0xb6b55f25\n      eq\n      tag_5\n      jumpi\n      dup1\n      0xd285b7b4\n      eq\n      tag_6\n      jumpi\n    tag_2:\n      0x00\n      dup1\n      revert\n        /* \"contracts/MyFirstContract.sol\":793:927  function withdraw(uint256 _amount) public ownerFunc {... */\n    tag_3:\n      tag_7\n      0x04\n      dup1\n      calldatasize\n      sub\n      dup2\n      add\n      swap1\n      tag_8\n      swap2\n      swap1\n      tag_9\n      jump\t// in\n    tag_8:\n      tag_10\n      jump\t// in\n    tag_7:\n      stop\n        /* \"contracts/MyFirstContract.sol\":933:1011  function balance() public view returns (uint256) {... */\n    tag_4:\n      tag_11\n      tag_12\n      jump\t// in\n    tag_11:\n      mload(0x40)\n      tag_13\n      swap2\n      swap1\n      tag_14\n      jump\t// in\n    tag_13:\n      mload(0x40)\n      dup1\n      swap2\n      sub\n      swap1\n      return\n        /* \"contracts/MyFirstContract.sol\":652:787  function deposit(uint256 _amount) public ownerFunc {... */\n    tag_5:\n      tag_15\n      0x04\n      dup1\n      calldatasize\n      sub\n      dup2\n      add\n      swap1\n      tag_16\n      swap2\n      swap1\n      tag_9\n      jump\t// in\n    tag_16:\n      tag_17\n      jump\t// in\n    tag_15:\n      stop\n        /* \"contracts/MyFirstContract.sol\":1192:1279  function loan() external view override returns (bool) {... */\n    tag_6:\n      tag_18\n      tag_19\n      jump\t// in\n    tag_18:\n      mload(0x40)\n      tag_20\n      swap2\n      swap1\n      tag_21\n      jump\t// in\n    tag_20:\n      mload(0x40)\n      dup1\n      swap2\n      sub\n      swap1\n      return\n        /* \"contracts/MyFirstContract.sol\":793:927  function withdraw(uint256 _amount) public ownerFunc {... */\n    tag_10:\n        /* \"contracts/MyFirstContract.sol\":522:532  msg.sender */\n      caller\n        /* \"contracts/MyFirstContract.sol\":513:532  owner == msg.sender */\n      0xffffffffffffffffffffffffffffffffffffffff\n      and\n        /* \"contracts/MyFirstContract.sol\":513:518  owner */\n      0x01\n      0x00\n      swap1\n      sload\n      swap1\n      0x0100\n      exp\n      swap1\n      div\n      0xffffffffffffffffffffffffffffffffffffffff\n      and\n        /* \"contracts/MyFirstContract.sol\":513:532  owner == msg.sender */\n      0xffffffffffffffffffffffffffffffffffffffff\n      and\n      eq\n        /* \"contracts/MyFirstContract.sol\":505:533  require(owner == msg.sender) */\n      tag_23\n      jumpi\n      0x00\n      dup1\n      revert\n    tag_23:\n        /* \"contracts/MyFirstContract.sol\":859:878  checkValue(_amount) */\n      tag_25\n        /* \"contracts/MyFirstContract.sol\":870:877  _amount */\n      dup2\n        /* \"contracts/MyFirstContract.sol\":859:869  checkValue */\n      tag_26\n        /* \"contracts/MyFirstContract.sol\":859:878  checkValue(_amount) */\n      jump\t// in\n    tag_25:\n        /* \"contracts/MyFirstContract.sol\":855:921  if (checkValue(_amount)) {... */\n      iszero\n      tag_27\n      jumpi\n        /* \"contracts/MyFirstContract.sol\":903:910  _amount */\n      dup1\n        /* \"contracts/MyFirstContract.sol\":894:899  value */\n      0x00\n      dup1\n        /* \"contracts/MyFirstContract.sol\":894:910  value -= _amount */\n      dup3\n      dup3\n      sload\n      tag_28\n      swap2\n      swap1\n      tag_29\n      jump\t// in\n    tag_28:\n      swap3\n      pop\n      pop\n      dup2\n      swap1\n      sstore\n      pop\n        /* \"contracts/MyFirstContract.sol\":855:921  if (checkValue(_amount)) {... */\n    tag_27:\n        /* \"contracts/MyFirstContract.sol\":793:927  function withdraw(uint256 _amount) public ownerFunc {... */\n      pop\n      jump\t// out\n        /* \"contracts/MyFirstContract.sol\":933:1011  function balance() public view returns (uint256) {... */\n    tag_12:\n        /* \"contracts/MyFirstContract.sol\":973:980  uint256 */\n      0x00\n        /* \"contracts/MyFirstContract.sol\":999:1004  value */\n      dup1\n      sload\n        /* \"contracts/MyFirstContract.sol\":992:1004  return value */\n      swap1\n      pop\n        /* \"contracts/MyFirstContract.sol\":933:1011  function balance() public view returns (uint256) {... */\n      swap1\n      jump\t// out\n        /* \"contracts/MyFirstContract.sol\":652:787  function deposit(uint256 _amount) public ownerFunc {... */\n    tag_17:\n        /* \"contracts/MyFirstContract.sol\":522:532  msg.sender */\n      caller\n        /* \"contracts/MyFirstContract.sol\":513:532  owner == msg.sender */\n      0xffffffffffffffffffffffffffffffffffffffff\n      and\n        /* \"contracts/MyFirstContract.sol\":513:518  owner */\n      0x01\n      0x00\n      swap1\n      sload\n      swap1\n      0x0100\n      exp\n      swap1\n      div\n      0xffffffffffffffffffffffffffffffffffffffff\n      and\n        /* \"contracts/MyFirstContract.sol\":513:532  owner == msg.sender */\n      0xffffffffffffffffffffffffffffffffffffffff\n      and\n      eq\n        /* \"contracts/MyFirstContract.sol\":505:533  require(owner == msg.sender) */\n      tag_32\n      jumpi\n      0x00\n      dup1\n      revert\n    tag_32:\n        /* \"contracts/MyFirstContract.sol\":722:729  _amount */\n      dup1\n        /* \"contracts/MyFirstContract.sol\":713:718  value */\n      0x00\n      dup1\n        /* \"contracts/MyFirstContract.sol\":713:729  value += _amount */\n      dup3\n      dup3\n      sload\n      tag_34\n      swap2\n      swap1\n      tag_35\n      jump\t// in\n    tag_34:\n      swap3\n      pop\n      pop\n      dup2\n      swap1\n      sstore\n      pop\n        /* \"contracts/MyFirstContract.sol\":744:780  ValueChanged(value - _amount, value) */\n      0x2db947ef788961acc438340dbcb4e242f80d026b621b7c98ee30619950390382\n        /* \"contracts/MyFirstContract.sol\":765:772  _amount */\n      dup2\n        /* \"contracts/MyFirstContract.sol\":757:762  value */\n      sload(0x00)\n        /* \"contracts/MyFirstContract.sol\":757:772  value - _amount */\n      tag_36\n      swap2\n      swap1\n      tag_29\n      jump\t// in\n    tag_36:\n        /* \"contracts/MyFirstContract.sol\":774:779  value */\n      sload(0x00)\n        /* \"contracts/MyFirstContract.sol\":744:780  ValueChanged(value - _amount, value) */\n      mload(0x40)\n      tag_37\n      swap3\n      swap2\n      swap1\n      tag_38\n      jump\t// in\n    tag_37:\n      mload(0x40)\n      dup1\n      swap2\n      sub\n      swap1\n      log1\n        /* \"contracts/MyFirstContract.sol\":652:787  function deposit(uint256 _amount) public ownerFunc {... */\n      pop\n      jump\t// out\n        /* \"contracts/MyFirstContract.sol\":1192:1279  function loan() external view override returns (bool) {... */\n    tag_19:\n        /* \"contracts/MyFirstContract.sol\":1240:1244  bool */\n      0x00\n        /* \"contracts/MyFirstContract.sol\":1271:1272  0 */\n      dup1\n        /* \"contracts/MyFirstContract.sol\":1263:1268  value */\n      sload(0x00)\n        /* \"contracts/MyFirstContract.sol\":1263:1272  value > 0 */\n      gt\n        /* \"contracts/MyFirstContract.sol\":1256:1272  return value > 0 */\n      swap1\n      pop\n        /* \"contracts/MyFirstContract.sol\":1192:1279  function loan() external view override returns (bool) {... */\n      swap1\n      jump\t// out\n        /* \"contracts/MyFirstContract.sol\":1017:1123  function checkValue(uint256 _amount) internal view returns (bool) {... */\n    tag_26:\n        /* \"contracts/MyFirstContract.sol\":1077:1081  bool */\n      0x00\n        /* \"contracts/MyFirstContract.sol\":1109:1116  _amount */\n      dup2\n        /* \"contracts/MyFirstContract.sol\":1100:1105  value */\n      sload(0x00)\n        /* \"contracts/MyFirstContract.sol\":1100:1116  value >= _amount */\n      lt\n      iszero\n        /* \"contracts/MyFirstContract.sol\":1093:1116  return value >= _amount */\n      swap1\n      pop\n        /* \"contracts/MyFirstContract.sol\":1017:1123  function checkValue(uint256 _amount) internal view returns (bool) {... */\n      swap2\n      swap1\n      pop\n      jump\t// out\n        /* \"#utility.yul\":7:146   */\n    tag_42:\n        /* \"#utility.yul\":53:58   */\n      0x00\n        /* \"#utility.yul\":91:97   */\n      dup2\n        /* \"#utility.yul\":78:98   */\n      calldataload\n        /* \"#utility.yul\":69:98   */\n      swap1\n      pop\n        /* \"#utility.yul\":107:140   */\n      tag_44\n        /* \"#utility.yul\":134:139   */\n      dup2\n        /* \"#utility.yul\":107:140   */\n      tag_45\n      jump\t// in\n    tag_44:\n        /* \"#utility.yul\":7:146   */\n      swap3\n      swap2\n      pop\n      pop\n      jump\t// out\n        /* \"#utility.yul\":152:481   */\n    tag_9:\n        /* \"#utility.yul\":211:217   */\n      0x00\n        /* \"#utility.yul\":260:262   */\n      0x20\n        /* \"#utility.yul\":248:257   */\n      dup3\n        /* \"#utility.yul\":239:246   */\n      dup5\n        /* \"#utility.yul\":235:258   */\n      sub\n        /* \"#utility.yul\":231:263   */\n      slt\n        /* \"#utility.yul\":228:347   */\n      iszero\n      tag_47\n      jumpi\n        /* \"#utility.yul\":266:345   */\n      tag_48\n      tag_49\n      jump\t// in\n    tag_48:\n        /* \"#utility.yul\":228:347   */\n    tag_47:\n        /* \"#utility.yul\":386:387   */\n      0x00\n        /* \"#utility.yul\":411:464   */\n      tag_50\n        /* \"#utility.yul\":456:463   */\n      dup5\n        /* \"#utility.yul\":447:453   */\n      dup3\n        /* \"#utility.yul\":436:445   */\n      dup6\n        /* \"#utility.yul\":432:454   */\n      add\n        /* \"#utility.yul\":411:464   */\n      tag_42\n      jump\t// in\n    tag_50:\n        /* \"#utility.yul\":401:464   */\n      swap2\n      pop\n        /* \"#utility.yul\":357:474   */\n      pop\n        /* \"#utility.yul\":152:481   */\n      swap3\n      swap2\n      pop\n      pop\n      jump\t// out\n        /* \"#utility.yul\":487:596   */\n    tag_51:\n        /* \"#utility.yul\":568:589   */\n      tag_53\n        /* \"#utility.yul\":583:588   */\n      dup2\n        /* \"#utility.yul\":568:589   */\n      tag_54\n      jump\t// in\n    tag_53:\n        /* \"#utility.yul\":563:566   */\n      dup3\n        /* \"#utility.yul\":556:590   */\n      mstore\n        /* \"#utility.yul\":487:596   */\n      pop\n      pop\n      jump\t// out\n        /* \"#utility.yul\":602:720   */\n    tag_55:\n        /* \"#utility.yul\":689:713   */\n      tag_57\n        /* \"#utility.yul\":707:712   */\n      dup2\n        /* \"#utility.yul\":689:713   */\n      tag_58\n      jump\t// in\n    tag_57:\n        /* \"#utility.yul\":684:687   */\n      dup3\n        /* \"#utility.yul\":677:714   */\n      mstore\n        /* \"#utility.yul\":602:720   */\n      pop\n      pop\n      jump\t// out\n        /* \"#utility.yul\":726:936   */\n    tag_21:\n        /* \"#utility.yul\":813:817   */\n      0x00\n        /* \"#utility.yul\":851:853   */\n      0x20\n        /* \"#utility.yul\":840:849   */\n      dup3\n        /* \"#utility.yul\":836:854   */\n      add\n        /* \"#utility.yul\":828:854   */\n      swap1\n      pop\n        /* \"#utility.yul\":864:929   */\n      tag_60\n        /* \"#utility.yul\":926:927   */\n      0x00\n        /* \"#utility.yul\":915:924   */\n      dup4\n        /* \"#utility.yul\":911:928   */\n      add\n        /* \"#utility.yul\":902:908   */\n      dup5\n        /* \"#utility.yul\":864:929   */\n      tag_51\n      jump\t// in\n    tag_60:\n        /* \"#utility.yul\":726:936   */\n      swap3\n      swap2\n      pop\n      pop\n      jump\t// out\n        /* \"#utility.yul\":942:1164   */\n    tag_14:\n        /* \"#utility.yul\":1035:1039   */\n      0x00\n        /* \"#utility.yul\":1073:1075   */\n      0x20\n        /* \"#utility.yul\":1062:1071   */\n      dup3\n        /* \"#utility.yul\":1058:1076   */\n      add\n        /* \"#utility.yul\":1050:1076   */\n      swap1\n      pop\n        /* \"#utility.yul\":1086:1157   */\n      tag_62\n        /* \"#utility.yul\":1154:1155   */\n      0x00\n        /* \"#utility.yul\":1143:1152   */\n      dup4\n        /* \"#utility.yul\":1139:1156   */\n      add\n        /* \"#utility.yul\":1130:1136   */\n      dup5\n        /* \"#utility.yul\":1086:1157   */\n      tag_55\n      jump\t// in\n    tag_62:\n        /* \"#utility.yul\":942:1164   */\n      swap3\n      swap2\n      pop\n      pop\n      jump\t// out\n        /* \"#utility.yul\":1170:1502   */\n    tag_38:\n        /* \"#utility.yul\":1291:1295   */\n      0x00\n        /* \"#utility.yul\":1329:1331   */\n      0x40\n        /* \"#utility.yul\":1318:1327   */\n      dup3\n        /* \"#utility.yul\":1314:1332   */\n      add\n        /* \"#utility.yul\":1306:1332   */\n      swap1\n      pop\n        /* \"#utility.yul\":1342:1413   */\n      tag_64\n        /* \"#utility.yul\":1410:1411   */\n      0x00\n        /* \"#utility.yul\":1399:1408   */\n      dup4\n        /* \"#utility.yul\":1395:1412   */\n      add\n        /* \"#utility.yul\":1386:1392   */\n      dup6\n        /* \"#utility.yul\":1342:1413   */\n      tag_55\n      jump\t// in\n    tag_64:\n        /* \"#utility.yul\":1423:1495   */\n      tag_65\n        /* \"#utility.yul\":1491:1493   */\n      0x20\n        /* \"#utility.yul\":1480:1489   */\n      dup4\n        /* \"#utility.yul\":1476:1494   */\n      add\n        /* \"#utility.yul\":1467:1473   */\n      dup5\n        /* \"#utility.yul\":1423:1495   */\n      tag_55\n      jump\t// in\n    tag_65:\n        /* \"#utility.yul\":1170:1502   */\n      swap4\n      swap3\n      pop\n      pop\n      pop\n      jump\t// out\n        /* \"#utility.yul\":1589:1894   */\n    tag_35:\n        /* \"#utility.yul\":1629:1632   */\n      0x00\n        /* \"#utility.yul\":1648:1668   */\n      tag_69\n        /* \"#utility.yul\":1666:1667   */\n      dup3\n        /* \"#utility.yul\":1648:1668   */\n      tag_58\n      jump\t// in\n    tag_69:\n        /* \"#utility.yul\":1643:1668   */\n      swap2\n      pop\n        /* \"#utility.yul\":1682:1702   */\n      tag_70\n        /* \"#utility.yul\":1700:1701   */\n      dup4\n        /* \"#utility.yul\":1682:1702   */\n      tag_58\n      jump\t// in\n    tag_70:\n        /* \"#utility.yul\":1677:1702   */\n      swap3\n      pop\n        /* \"#utility.yul\":1836:1837   */\n      dup3\n        /* \"#utility.yul\":1768:1834   */\n      0xffffffffffffffffffffffffffffffffffffffffffffffffffffffffffffffff\n        /* \"#utility.yul\":1764:1838   */\n      sub\n        /* \"#utility.yul\":1761:1762   */\n      dup3\n        /* \"#utility.yul\":1758:1839   */\n      gt\n        /* \"#utility.yul\":1755:1862   */\n      iszero\n      tag_71\n      jumpi\n        /* \"#utility.yul\":1842:1860   */\n      tag_72\n      tag_73\n      jump\t// in\n    tag_72:\n        /* \"#utility.yul\":1755:1862   */\n    tag_71:\n        /* \"#utility.yul\":1886:1887   */\n      dup3\n        /* \"#utility.yul\":1883:1884   */\n      dup3\n        /* \"#utility.yul\":1879:1888   */\n      add\n        /* \"#utility.yul\":1872:1888   */\n      swap1\n      pop\n        /* \"#utility.yul\":1589:1894   */\n      swap3\n      swap2\n      pop\n      pop\n      jump\t// out\n        /* \"#utility.yul\":1900:2091   */\n    tag_29:\n        /* \"#utility.yul\":1940:1944   */\n      0x00\n        /* \"#utility.yul\":1960:1980   */\n      tag_75\n        /* \"#utility.yul\":1978:1979   */\n      dup3\n        /* \"#utility.yul\":1960:1980   */\n      tag_58\n      jump\t// in\n    tag_75:\n        /* \"#utility.yul\":1955:1980   */\n      swap2\n      pop\n        /* \"#utility.yul\":1994:2014   */\n      tag_76\n        /* \"#utility.yul\":2012:2013   */\n      dup4\n        /* \"#utility.yul\":1994:2014   */\n      tag_58\n      jump\t// in\n    tag_76:\n        /* \"#utility.yul\":1989:2014   */\n      swap3\n      pop\n        /* \"#utility.yul\":2033:2034   */\n      dup3\n        /* \"#utility.yul\":2030:2031   */\n      dup3\n        /* \"#utility.yul\":2027:2035   */\n      lt\n        /* \"#utility.yul\":2024:2058   */\n      iszero\n      tag_77\n      jumpi\n        /* \"#utility.yul\":2038:2056   */\n      tag_78\n      tag_73\n      jump\t// in\n    tag_78:\n        /* \"#utility.yul\":2024:2058   */\n    tag_77:\n        /* \"#utility.yul\":2083:2084   */\n      dup3\n        /* \"#utility.yul\":2080:2081   */\n      dup3\n        /* \"#utility.yul\":2076:2085   */\n      sub\n        /* \"#utility.yul\":2068:2085   */\n      swap1\n      pop\n        /* \"#utility.yul\":1900:2091   */\n      swap3\n      swap2\n      pop\n      pop\n      jump\t// out\n        /* \"#utility.yul\":2097:2187   */\n    tag_54:\n        /* \"#utility.yul\":2131:2138   */\n      0x00\n        /* \"#utility.yul\":2174:2179   */\n      dup2\n        /* \"#utility.yul\":2167:2180   */\n      iszero\n        /* \"#utility.yul\":2160:2181   */\n      iszero\n        /* \"#utility.yul\":2149:2181   */\n      swap1\n      pop\n        /* \"#utility.yul\":2097:2187   */\n      swap2\n      swap1\n      pop\n      jump\t// out\n        /* \"#utility.yul\":2193:2270   */\n    tag_58:\n        /* \"#utility.yul\":2230:2237   */\n      0x00\n        /* \"#utility.yul\":2259:2264   */\n      dup2\n        /* \"#utility.yul\":2248:2264   */\n      swap1\n      pop\n        /* \"#utility.yul\":2193:2270   */\n      swap2\n      swap1\n      pop\n      jump\t// out\n        /* \"#utility.yul\":2276:2456   */\n    tag_73:\n        /* \"#utility.yul\":2324:2401   */\n      0x4e487b7100000000000000000000000000000000000000000000000000000000\n        /* \"#utility.yul\":2321:2322   */\n      0x00\n        /* \"#utility.yul\":2314:2402   */\n      mstore\n        /* \"#utility.yul\":2421:2425   */\n      0x11\n        /* \"#utility.yul\":2418:2419   */\n      0x04\n        /* \"#utility.yul\":2411:2426   */\n      mstore\n        /* \"#utility.yul\":2445:2449   */\n      0x24\n        /* \"#utility.yul\":2442:2443   */\n      0x00\n        /* \"#utility.yul\":2435:2450   */\n      revert\n        /* \"#utility.yul\":2585:2702   */\n    tag_49:\n        /* \"#utility.yul\":2694:2695   */\n      0x00\n        /* \"#utility.yul\":2691:2692   */\n      dup1\n        /* \"#utility.yul\":2684:2696   */\n      revert\n        /* \"#utility.yul\":2708:2830   */\n    tag_45:\n        /* \"#utility.yul\":2781:2805   */\n      tag_86\n        /* \"#utility.yul\":2799:2804   */\n      dup2\n        /* \"#utility.yul\":2781:2805   */\n      tag_58\n      jump\t// in\n    tag_86:\n        /* \"#utility.yul\":2774:2779   */\n      dup2\n        /* \"#utility.yul\":2771:2806   */\n      eq\n        /* \"#utility.yul\":2761:2824   */\n      tag_87\n      jumpi\n        /* \"#utility.yul\":2820:2821   */\n      0x00\n        /* \"#utility.yul\":2817:2818   */\n      dup1\n        /* \"#utility.yul\":2810:2822   */\n      revert\n        /* \"#utility.yul\":2761:2824   */\n    tag_87:\n        /* \"#utility.yul\":2708:2830   */\n      pop\n      jump\t// out\n\n    auxdata: 0xa2646970667358221220242f1c7ea894112b92a90507deceb0335698c0aae3d6b0c4c9c218390a47742064736f6c63430008070033\n}\n",
				"bytecode": {
					"linkReferences": {},
					"object": "608060405263ffd2b900600160146101000a81548163ffffffff021916908363ffffffff16021790555034801561003557600080fd5b50604051610526380380610526833981810160405281019061005791906100ba565b8060008190555033600160006101000a81548173ffffffffffffffffffffffffffffffffffffffff021916908373ffffffffffffffffffffffffffffffffffffffff1602179055505061010d565b6000815190506100b4816100f6565b92915050565b6000602082840312156100d0576100cf6100f1565b5b60006100de848285016100a5565b91505092915050565b6000819050919050565b600080fd5b6100ff816100e7565b811461010a57600080fd5b50565b61040a8061011c6000396000f3fe608060405234801561001057600080fd5b506004361061004c5760003560e01c80632e1a7d4d14610051578063b69ef8a81461006d578063b6b55f251461008b578063d285b7b4146100a7575b600080fd5b61006b6004803603810190610066919061023f565b6100c5565b005b610075610149565b60405161008291906102a5565b60405180910390f35b6100a560048036038101906100a0919061023f565b610152565b005b6100af61020f565b6040516100bc919061028a565b60405180910390f35b3373ffffffffffffffffffffffffffffffffffffffff16600160009054906101000a900473ffffffffffffffffffffffffffffffffffffffff1673ffffffffffffffffffffffffffffffffffffffff161461011f57600080fd5b6101288161021b565b15610146578060008082825461013e919061033f565b925050819055505b50565b60008054905090565b3373ffffffffffffffffffffffffffffffffffffffff16600160009054906101000a900473ffffffffffffffffffffffffffffffffffffffff1673ffffffffffffffffffffffffffffffffffffffff16146101ac57600080fd5b806000808282546101bd91906102e9565b925050819055507f2db947ef788961acc438340dbcb4e242f80d026b621b7c98ee30619950390382816000546101f3919061033f565b6000546040516102049291906102c0565b60405180910390a150565b60008060005411905090565b60008160005410159050919050565b600081359050610239816103bd565b92915050565b600060208284031215610255576102546103b8565b5b60006102638482850161022a565b91505092915050565b61027581610373565b82525050565b6102848161037f565b82525050565b600060208201905061029f600083018461026c565b92915050565b60006020820190506102ba600083018461027b565b92915050565b60006040820190506102d5600083018561027b565b6102e2602083018461027b565b9392505050565b60006102f48261037f565b91506102ff8361037f565b9250827fffffffffffffffffffffffffffffffffffffffffffffffffffffffffffffffff0382111561033457610333610389565b5b828201905092915050565b600061034a8261037f565b91506103558361037f565b92508282101561036857610367610389565b5b828203905092915050565b60008115159050919050565b6000819050919050565b7f4e487b7100000000000000000000000000000000000000000000000000000000600052601160045260246000fd5b600080fd5b6103c68161037f565b81146103d157600080fd5b5056fea2646970667358221220242f1c7ea894112b92a90507deceb0335698c0aae3d6b0c4c9c218390a47742064736f6c63430008070033",
					"opcodes": "PUSH1 0x80 PUSH1 0x40 MSTORE PUSH4 0xFFD2B900 PUSH1 0x1 PUSH1 0x14 PUSH2 0x100 EXP DUP2 SLOAD DUP2 PUSH4 0xFFFFFFFF MUL NOT AND SWAP1 DUP4 PUSH4 0xFFFFFFFF AND MUL OR SWAP1 SSTORE POP CALLVALUE DUP1 ISZERO PUSH2 0x35 JUMPI PUSH1 0x0 DUP1 REVERT JUMPDEST POP PUSH1 0x40 MLOAD PUSH2 0x526 CODESIZE SUB DUP1 PUSH2 0x526 DUP4 CODECOPY DUP2 DUP2 ADD PUSH1 0x40 MSTORE DUP2 ADD SWAP1 PUSH2 0x57 SWAP2 SWAP1 PUSH2 0xBA JUMP JUMPDEST DUP1 PUSH1 0x0 DUP2 SWAP1 SSTORE POP CALLER PUSH1 0x1 PUSH1 0x0 PUSH2 0x100 EXP DUP2 SLOAD DUP2 PUSH20 0xFFFFFFFFFFFFFFFFFFFFFFFFFFFFFFFFFFFFFFFF MUL NOT AND SWAP1 DUP4 PUSH20 0xFFFFFFFFFFFFFFFFFFFFFFFFFFFFFFFFFFFFFFFF AND MUL OR SWAP1 SSTORE POP POP PUSH2 0x10D JUMP JUMPDEST PUSH1 0x0 DUP2 MLOAD SWAP1 POP PUSH2 0xB4 DUP2 PUSH2 0xF6 JUMP JUMPDEST SWAP3 SWAP2 POP POP JUMP JUMPDEST PUSH1 0x0 PUSH1 0x20 DUP3 DUP5 SUB SLT ISZERO PUSH2 0xD0 JUMPI PUSH2 0xCF PUSH2 0xF1 JUMP JUMPDEST JUMPDEST PUSH1 0x0 PUSH2 0xDE DUP5 DUP3 DUP6 ADD PUSH2 0xA5 JUMP JUMPDEST SWAP2 POP POP SWAP3 SWAP2 POP POP JUMP JUMPDEST PUSH1 0x0 DUP2 SWAP1 POP SWAP2 SWAP1 POP JUMP JUMPDEST PUSH1 0x0 DUP1 REVERT JUMPDEST PUSH2 0xFF DUP2 PUSH2 0xE7 JUMP JUMPDEST DUP2 EQ PUSH2 0x10A JUMPI PUSH1 0x0 DUP1 REVERT JUMPDEST POP JUMP JUMPDEST PUSH2 0x40A DUP1 PUSH2 0x11C PUSH1 0x0 CODECOPY PUSH1 0x0 RETURN INVALID PUSH1 0x80 PUSH1 0x40 MSTORE CALLVALUE DUP1 ISZERO PUSH2 0x10 JUMPI PUSH1 0x0 DUP1 REVERT JUMPDEST POP PUSH1 0x4 CALLDATASIZE LT PUSH2 0x4C JUMPI PUSH1 0x0 CALLDATALOAD PUSH1 0xE0 SHR DUP1 PUSH4 0x2E1A7D4D EQ PUSH2 0x51 JUMPI DUP1 PUSH4 0xB69EF8A8 EQ PUSH2 0x6D JUMPI DUP1 PUSH4 0xB6B55F25 EQ PUSH2 0x8B JUMPI DUP1 PUSH4 0xD285B7B4 EQ PUSH2 0xA7 JUMPI JUMPDEST PUSH1 0x0 DUP1 REVERT JUMPDEST PUSH2 0x6B PUSH1 0x4 DUP1 CALLDATASIZE SUB DUP2 ADD SWAP1 PUSH2 0x66 SWAP2 SWAP1 PUSH2 0x23F JUMP JUMPDEST PUSH2 0xC5 JUMP JUMPDEST STOP JUMPDEST PUSH2 0x75 PUSH2 0x149 JUMP JUMPDEST PUSH1 0x40 MLOAD PUSH2 0x82 SWAP2 SWAP1 PUSH2 0x2A5 JUMP JUMPDEST PUSH1 0x40 MLOAD DUP1 SWAP2 SUB SWAP1 RETURN JUMPDEST PUSH2 0xA5 PUSH1 0x4 DUP1 CALLDATASIZE SUB DUP2 ADD SWAP1 PUSH2 0xA0 SWAP2 SWAP1 PUSH2 0x23F JUMP JUMPDEST PUSH2 0x152 JUMP JUMPDEST STOP JUMPDEST PUSH2 0xAF PUSH2 0x20F JUMP JUMPDEST PUSH1 0x40 MLOAD PUSH2 0xBC SWAP2 SWAP1 PUSH2 0x28A JUMP JUMPDEST PUSH1 0x40 MLOAD DUP1 SWAP2 SUB SWAP1 RETURN JUMPDEST CALLER PUSH20 0xFFFFFFFFFFFFFFFFFFFFFFFFFFFFFFFFFFFFFFFF AND PUSH1 0x1 PUSH1 0x0 SWAP1 SLOAD SWAP1 PUSH2 0x100 EXP SWAP1 DIV PUSH20 0xFFFFFFFFFFFFFFFFFFFFFFFFFFFFFFFFFFFFFFFF AND PUSH20 0xFFFFFFFFFFFFFFFFFFFFFFFFFFFFFFFFFFFFFFFF AND EQ PUSH2 0x11F JUMPI PUSH1 0x0 DUP1 REVERT JUMPDEST PUSH2 0x128 DUP2 PUSH2 0x21B JUMP JUMPDEST ISZERO PUSH2 0x146 JUMPI DUP1 PUSH1 0x0 DUP1 DUP3 DUP3 SLOAD PUSH2 0x13E SWAP2 SWAP1 PUSH2 0x33F JUMP JUMPDEST SWAP3 POP POP DUP2 SWAP1 SSTORE POP JUMPDEST POP JUMP JUMPDEST PUSH1 0x0 DUP1 SLOAD SWAP1 POP SWAP1 JUMP JUMPDEST CALLER PUSH20 0xFFFFFFFFFFFFFFFFFFFFFFFFFFFFFFFFFFFFFFFF AND PUSH1 0x1 PUSH1 0x0 SWAP1 SLOAD SWAP1 PUSH2 0x100 EXP SWAP1 DIV PUSH20 0xFFFFFFFFFFFFFFFFFFFFFFFFFFFFFFFFFFFFFFFF AND PUSH20 0xFFFFFFFFFFFFFFFFFFFFFFFFFFFFFFFFFFFFFFFF AND EQ PUSH2 0x1AC JUMPI PUSH1 0x0 DUP1 REVERT JUMPDEST DUP1 PUSH1 0x0 DUP1 DUP3 DUP3 SLOAD PUSH2 0x1BD SWAP2 SWAP1 PUSH2 0x2E9 JUMP JUMPDEST SWAP3 POP POP DUP2 SWAP1 SSTORE POP PUSH32 0x2DB947EF788961ACC438340DBCB4E242F80D026B621B7C98EE30619950390382 DUP2 PUSH1 0x0 SLOAD PUSH2 0x1F3 SWAP2 SWAP1 PUSH2 0x33F JUMP JUMPDEST PUSH1 0x0 SLOAD PUSH1 0x40 MLOAD PUSH2 0x204 SWAP3 SWAP2 SWAP1 PUSH2 0x2C0 JUMP JUMPDEST PUSH1 0x40 MLOAD DUP1 SWAP2 SUB SWAP1 LOG1 POP JUMP JUMPDEST PUSH1 0x0 DUP1 PUSH1 0x0 SLOAD GT SWAP1 POP SWAP1 JUMP JUMPDEST PUSH1 0x0 DUP2 PUSH1 0x0 SLOAD LT ISZERO SWAP1 POP SWAP2 SWAP1 POP JUMP JUMPDEST PUSH1 0x0 DUP2 CALLDATALOAD SWAP1 POP PUSH2 0x239 DUP2 PUSH2 0x3BD JUMP JUMPDEST SWAP3 SWAP2 POP POP JUMP JUMPDEST PUSH1 0x0 PUSH1 0x20 DUP3 DUP5 SUB SLT ISZERO PUSH2 0x255 JUMPI PUSH2 0x254 PUSH2 0x3B8 JUMP JUMPDEST JUMPDEST PUSH1 0x0 PUSH2 0x263 DUP5 DUP3 DUP6 ADD PUSH2 0x22A JUMP JUMPDEST SWAP2 POP POP SWAP3 SWAP2 POP POP JUMP JUMPDEST PUSH2 0x275 DUP2 PUSH2 0x373 JUMP JUMPDEST DUP3 MSTORE POP POP JUMP JUMPDEST PUSH2 0x284 DUP2 PUSH2 0x37F JUMP JUMPDEST DUP3 MSTORE POP POP JUMP JUMPDEST PUSH1 0x0 PUSH1 0x20 DUP3 ADD SWAP1 POP PUSH2 0x29F PUSH1 0x0 DUP4 ADD DUP5 PUSH2 0x26C JUMP JUMPDEST SWAP3 SWAP2 POP POP JUMP JUMPDEST PUSH1 0x0 PUSH1 0x20 DUP3 ADD SWAP1 POP PUSH2 0x2BA PUSH1 0x0 DUP4 ADD DUP5 PUSH2 0x27B JUMP JUMPDEST SWAP3 SWAP2 POP POP JUMP JUMPDEST PUSH1 0x0 PUSH1 0x40 DUP3 ADD SWAP1 POP PUSH2 0x2D5 PUSH1 0x0 DUP4 ADD DUP6 PUSH2 0x27B JUMP JUMPDEST PUSH2 0x2E2 PUSH1 0x20 DUP4 ADD DUP5 PUSH2 0x27B JUMP JUMPDEST SWAP4 SWAP3 POP POP POP JUMP JUMPDEST PUSH1 0x0 PUSH2 0x2F4 DUP3 PUSH2 0x37F JUMP JUMPDEST SWAP2 POP PUSH2 0x2FF DUP4 PUSH2 0x37F JUMP JUMPDEST SWAP3 POP DUP3 PUSH32 0xFFFFFFFFFFFFFFFFFFFFFFFFFFFFFFFFFFFFFFFFFFFFFFFFFFFFFFFFFFFFFFFF SUB DUP3 GT ISZERO PUSH2 0x334 JUMPI PUSH2 0x333 PUSH2 0x389 JUMP JUMPDEST JUMPDEST DUP3 DUP3 ADD SWAP1 POP SWAP3 SWAP2 POP POP JUMP JUMPDEST PUSH1 0x0 PUSH2 0x34A DUP3 PUSH2 0x37F JUMP JUMPDEST SWAP2 POP PUSH2 0x355 DUP4 PUSH2 0x37F JUMP JUMPDEST SWAP3 POP DUP3 DUP3 LT ISZERO PUSH2 0x368 JUMPI PUSH2 0x367 PUSH2 0x389 JUMP JUMPDEST JUMPDEST DUP3 DUP3 SUB SWAP1 POP SWAP3 SWAP2 POP POP JUMP JUMPDEST PUSH1 0x0 DUP2 ISZERO ISZERO SWAP1 POP SWAP2 SWAP1 POP JUMP JUMPDEST PUSH1 0x0 DUP2 SWAP1 POP SWAP2 SWAP1 POP JUMP JUMPDEST PUSH32 0x4E487B7100000000000000000000000000000000000000000000000000000000 PUSH1 0x0 MSTORE PUSH1 0x11 PUSH1 0x4 MSTORE PUSH1 0x24 PUSH1 0x0 REVERT JUMPDEST PUSH1 0x0 DUP1 REVERT JUMPDEST PUSH2 0x3C6 DUP2 PUSH2 0x37F JUMP JUMPDEST DUP2 EQ PUSH2 0x3D1 JUMPI PUSH1 0x0 DUP1 REVERT JUMPDEST POP JUMP INVALID LOG2 PUSH5 0x6970667358 0x22 SLT KECCAK256 0x24 0x2F SHR PUSH31 0xA894112B92A90507DECEB0335698C0AAE3D6B0C4C9C218390A47742064736F PUSH13 0x63430008070033000000000000 "
				},
				"gasEstimates": {
					"creation": {
						"codeDepositCost": "206800",
						"executionCost": "infinite",
						"totalCost": "infinite"
					},
					"external": {
						"balance()": "2437",
						"deposit(uint256)": "infinite",
						"loan()": "2493",
						"withdraw(uint256)": "infinite"
					},
					"internal": {
						"checkValue(uint256)": "2137"
					}
				},
				"methodIdentifiers": {
					"balance()": "b69ef8a8",
					"deposit(uint256)": "b6b55f25",
					"loan()": "d285b7b4",
					"withdraw(uint256)": "2e1a7d4d"
				}
			},
			"storageLayout": {
				"storage": [
					{
						"astId": 11,
						"contract": "contracts/MyFirstContract.sol:Bank",
						"label": "value",
						"offset": 0,
						"slot": "0",
						"type": "t_uint256"
					},
					{
						"astId": 13,
						"contract": "contracts/MyFirstContract.sol:Bank",
						"label": "owner",
						"offset": 0,
						"slot": "1",
						"type": "t_address"
					},
					{
						"astId": 16,
						"contract": "contracts/MyFirstContract.sol:Bank",
						"label": "myNumber",
						"offset": 20,
						"slot": "1",
						"type": "t_uint32"
					}
				],
				"types": {
					"t_address": {
						"encoding": "inplace",
						"label": "address",
						"numberOfBytes": "20"
					},
					"t_uint256": {
						"encoding": "inplace",
						"label": "uint256",
						"numberOfBytes": "32"
					},
					"t_uint32": {
						"encoding": "inplace",
						"label": "uint32",
						"numberOfBytes": "4"
					}
				}
			},
			"userdoc": {
				"kind": "user",
				"methods": {},
				"version": 1
			}
		}
	}
}