{
	"contracts/library/library.sol": {
		"IntExtended": {
			"abi": [
				{
					"inputs": [
						{
							"internalType": "uint256",
							"name": "_self",
							"type": "uint256"
						}
					],
					"name": "decrement",
					"outputs": [
						{
							"internalType": "uint256",
							"name": "",
							"type": "uint256"
						}
					],
					"stateMutability": "pure",
					"type": "function"
				},
				{
					"inputs": [
						{
							"internalType": "uint256",
							"name": "_self",
							"type": "uint256"
						},
						{
							"internalType": "uint256",
							"name": "_value",
							"type": "uint256"
						}
					],
					"name": "decrementByValue",
					"outputs": [
						{
							"internalType": "uint256",
							"name": "",
							"type": "uint256"
						}
					],
					"stateMutability": "pure",
					"type": "function"
				},
				{
					"inputs": [
						{
							"internalType": "uint256",
							"name": "_self",
							"type": "uint256"
						}
					],
					"name": "increment",
					"outputs": [
						{
							"internalType": "uint256",
							"name": "",
							"type": "uint256"
						}
					],
					"stateMutability": "pure",
					"type": "function"
				},
				{
					"inputs": [
						{
							"internalType": "uint256",
							"name": "_self",
							"type": "uint256"
						},
						{
							"internalType": "uint256",
							"name": "_value",
							"type": "uint256"
						}
					],
					"name": "incrementByValue",
					"outputs": [
						{
							"internalType": "uint256",
							"name": "",
							"type": "uint256"
						}
					],
					"stateMutability": "pure",
					"type": "function"
				}
			],
			"devdoc": {
				"kind": "dev",
				"methods": {},
				"version": 1
			},
			"evm": {
				"assembly": "    /* \"contracts/library/library.sol\":73:532  library IntExtended {... */\n  dataSize(sub_0)\n  dataOffset(sub_0)\n  0x0b\n  dup3\n  dup3\n  dup3\n  codecopy\n  dup1\n  mload\n  0x00\n  byte\n  0x73\n  eq\n  tag_1\n  jumpi\n  mstore(0x00, 0x4e487b7100000000000000000000000000000000000000000000000000000000)\n  mstore(0x04, 0x00)\n  revert(0x00, 0x24)\ntag_1:\n  mstore(0x00, address)\n  0x73\n  dup2\n  mstore8\n  dup3\n  dup2\n  return\nstop\n\nsub_0: assembly {\n        /* \"contracts/library/library.sol\":73:532  library IntExtended {... */\n      eq(address, deployTimeAddress())\n      mstore(0x40, 0x80)\n      jumpi(tag_1, lt(calldatasize, 0x04))\n      shr(0xe0, calldataload(0x00))\n      dup1\n      0x3a9ebefd\n      eq\n      tag_2\n      jumpi\n      dup1\n      0x7669a640\n      eq\n      tag_3\n      jumpi\n      dup1\n      0x7cf5dab0\n      eq\n      tag_4\n      jumpi\n      dup1\n      0xdccce74d\n      eq\n      tag_5\n      jumpi\n    tag_1:\n      0x00\n      dup1\n      revert\n        /* \"contracts/library/library.sol\":196:286  function decrement(uint _self) public pure returns(uint) {... */\n    tag_2:\n      tag_6\n      0x04\n      dup1\n      calldatasize\n      sub\n      dup2\n      add\n      swap1\n      tag_7\n      swap2\n      swap1\n      tag_8\n      jump\t// in\n    tag_7:\n      tag_9\n      jump\t// in\n    tag_6:\n      mload(0x40)\n      tag_10\n      swap2\n      swap1\n      tag_11\n      jump\t// in\n    tag_10:\n      mload(0x40)\n      dup1\n      swap2\n      sub\n      swap1\n      return\n        /* \"contracts/library/library.sol\":292:407  function incrementByValue(uint _self, uint _value) public pure returns(uint) {... */\n    tag_3:\n      tag_12\n      0x04\n      dup1\n      calldatasize\n      sub\n      dup2\n      add\n      swap1\n      tag_13\n      swap2\n      swap1\n      tag_14\n      jump\t// in\n    tag_13:\n      tag_15\n      jump\t// in\n    tag_12:\n      mload(0x40)\n      tag_16\n      swap2\n      swap1\n      tag_11\n      jump\t// in\n    tag_16:\n      mload(0x40)\n      dup1\n      swap2\n      sub\n      swap1\n      return\n        /* \"contracts/library/library.sol\":99:190  function increment(uint _self) public pure returns (uint) {... */\n    tag_4:\n      tag_17\n      0x04\n      dup1\n      calldatasize\n      sub\n      dup2\n      add\n      swap1\n      tag_18\n      swap2\n      swap1\n      tag_8\n      jump\t// in\n    tag_18:\n      tag_19\n      jump\t// in\n    tag_17:\n      mload(0x40)\n      tag_20\n      swap2\n      swap1\n      tag_11\n      jump\t// in\n    tag_20:\n      mload(0x40)\n      dup1\n      swap2\n      sub\n      swap1\n      return\n        /* \"contracts/library/library.sol\":413:528  function decrementByValue(uint _self, uint _value) public pure returns(uint) {... */\n    tag_5:\n      tag_21\n      0x04\n      dup1\n      calldatasize\n      sub\n      dup2\n      add\n      swap1\n      tag_22\n      swap2\n      swap1\n      tag_14\n      jump\t// in\n    tag_22:\n      tag_23\n      jump\t// in\n    tag_21:\n      mload(0x40)\n      tag_24\n      swap2\n      swap1\n      tag_11\n      jump\t// in\n    tag_24:\n      mload(0x40)\n      dup1\n      swap2\n      sub\n      swap1\n      return\n        /* \"contracts/library/library.sol\":196:286  function decrement(uint _self) public pure returns(uint) {... */\n    tag_9:\n        /* \"contracts/library/library.sol\":247:251  uint */\n      0x00\n        /* \"contracts/library/library.sol\":278:279  1 */\n      0x01\n        /* \"contracts/library/library.sol\":270:275  _self */\n      dup3\n        /* \"contracts/library/library.sol\":270:279  _self - 1 */\n      tag_26\n      swap2\n      swap1\n      tag_27\n      jump\t// in\n    tag_26:\n        /* \"contracts/library/library.sol\":263:279  return _self - 1 */\n      swap1\n      pop\n        /* \"contracts/library/library.sol\":196:286  function decrement(uint _self) public pure returns(uint) {... */\n      swap2\n      swap1\n      pop\n      jump\t// out\n        /* \"contracts/library/library.sol\":292:407  function incrementByValue(uint _self, uint _value) public pure returns(uint) {... */\n    tag_15:\n        /* \"contracts/library/library.sol\":363:367  uint */\n      0x00\n        /* \"contracts/library/library.sol\":394:400  _value */\n      dup2\n        /* \"contracts/library/library.sol\":386:391  _self */\n      dup4\n        /* \"contracts/library/library.sol\":386:400  _self + _value */\n      tag_29\n      swap2\n      swap1\n      tag_30\n      jump\t// in\n    tag_29:\n        /* \"contracts/library/library.sol\":379:400  return _self + _value */\n      swap1\n      pop\n        /* \"contracts/library/library.sol\":292:407  function incrementByValue(uint _self, uint _value) public pure returns(uint) {... */\n      swap3\n      swap2\n      pop\n      pop\n      jump\t// out\n        /* \"contracts/library/library.sol\":99:190  function increment(uint _self) public pure returns (uint) {... */\n    tag_19:\n        /* \"contracts/library/library.sol\":151:155  uint */\n      0x00\n        /* \"contracts/library/library.sol\":182:183  1 */\n      0x01\n        /* \"contracts/library/library.sol\":174:179  _self */\n      dup3\n        /* \"contracts/library/library.sol\":174:183  _self + 1 */\n      tag_32\n      swap2\n      swap1\n      tag_30\n      jump\t// in\n    tag_32:\n        /* \"contracts/library/library.sol\":167:183  return _self + 1 */\n      swap1\n      pop\n        /* \"contracts/library/library.sol\":99:190  function increment(uint _self) public pure returns (uint) {... */\n      swap2\n      swap1\n      pop\n      jump\t// out\n        /* \"contracts/library/library.sol\":413:528  function decrementByValue(uint _self, uint _value) public pure returns(uint) {... */\n    tag_23:\n        /* \"contracts/library/library.sol\":484:488  uint */\n      0x00\n        /* \"contracts/library/library.sol\":515:521  _value */\n      dup2\n        /* \"contracts/library/library.sol\":507:512  _self */\n      dup4\n        /* \"contracts/library/library.sol\":507:521  _self - _value */\n      tag_34\n      swap2\n      swap1\n      tag_27\n      jump\t// in\n    tag_34:\n        /* \"contracts/library/library.sol\":500:521  return _self - _value */\n      swap1\n      pop\n        /* \"contracts/library/library.sol\":413:528  function decrementByValue(uint _self, uint _value) public pure returns(uint) {... */\n      swap3\n      swap2\n      pop\n      pop\n      jump\t// out\n        /* \"#utility.yul\":7:146   */\n    tag_36:\n        /* \"#utility.yul\":53:58   */\n      0x00\n        /* \"#utility.yul\":91:97   */\n      dup2\n        /* \"#utility.yul\":78:98   */\n      calldataload\n        /* \"#utility.yul\":69:98   */\n      swap1\n      pop\n        /* \"#utility.yul\":107:140   */\n      tag_38\n        /* \"#utility.yul\":134:139   */\n      dup2\n        /* \"#utility.yul\":107:140   */\n      tag_39\n      jump\t// in\n    tag_38:\n        /* \"#utility.yul\":7:146   */\n      swap3\n      swap2\n      pop\n      pop\n      jump\t// out\n        /* \"#utility.yul\":152:481   */\n    tag_8:\n        /* \"#utility.yul\":211:217   */\n      0x00\n        /* \"#utility.yul\":260:262   */\n      0x20\n        /* \"#utility.yul\":248:257   */\n      dup3\n        /* \"#utility.yul\":239:246   */\n      dup5\n        /* \"#utility.yul\":235:258   */\n      sub\n        /* \"#utility.yul\":231:263   */\n      slt\n        /* \"#utility.yul\":228:347   */\n      iszero\n      tag_41\n      jumpi\n        /* \"#utility.yul\":266:345   */\n      tag_42\n      tag_43\n      jump\t// in\n    tag_42:\n        /* \"#utility.yul\":228:347   */\n    tag_41:\n        /* \"#utility.yul\":386:387   */\n      0x00\n        /* \"#utility.yul\":411:464   */\n      tag_44\n        /* \"#utility.yul\":456:463   */\n      dup5\n        /* \"#utility.yul\":447:453   */\n      dup3\n        /* \"#utility.yul\":436:445   */\n      dup6\n        /* \"#utility.yul\":432:454   */\n      add\n        /* \"#utility.yul\":411:464   */\n      tag_36\n      jump\t// in\n    tag_44:\n        /* \"#utility.yul\":401:464   */\n      swap2\n      pop\n        /* \"#utility.yul\":357:474   */\n      pop\n        /* \"#utility.yul\":152:481   */\n      swap3\n      swap2\n      pop\n      pop\n      jump\t// out\n        /* \"#utility.yul\":487:961   */\n    tag_14:\n        /* \"#utility.yul\":555:561   */\n      0x00\n        /* \"#utility.yul\":563:569   */\n      dup1\n        /* \"#utility.yul\":612:614   */\n      0x40\n        /* \"#utility.yul\":600:609   */\n      dup4\n        /* \"#utility.yul\":591:598   */\n      dup6\n        /* \"#utility.yul\":587:610   */\n      sub\n        /* \"#utility.yul\":583:615   */\n      slt\n        /* \"#utility.yul\":580:699   */\n      iszero\n      tag_46\n      jumpi\n        /* \"#utility.yul\":618:697   */\n      tag_47\n      tag_43\n      jump\t// in\n    tag_47:\n        /* \"#utility.yul\":580:699   */\n    tag_46:\n        /* \"#utility.yul\":738:739   */\n      0x00\n        /* \"#utility.yul\":763:816   */\n      tag_48\n        /* \"#utility.yul\":808:815   */\n      dup6\n        /* \"#utility.yul\":799:805   */\n      dup3\n        /* \"#utility.yul\":788:797   */\n      dup7\n        /* \"#utility.yul\":784:806   */\n      add\n        /* \"#utility.yul\":763:816   */\n      tag_36\n      jump\t// in\n    tag_48:\n        /* \"#utility.yul\":753:816   */\n      swap3\n      pop\n        /* \"#utility.yul\":709:826   */\n      pop\n        /* \"#utility.yul\":865:867   */\n      0x20\n        /* \"#utility.yul\":891:944   */\n      tag_49\n        /* \"#utility.yul\":936:943   */\n      dup6\n        /* \"#utility.yul\":927:933   */\n      dup3\n        /* \"#utility.yul\":916:925   */\n      dup7\n        /* \"#utility.yul\":912:934   */\n      add\n        /* \"#utility.yul\":891:944   */\n      tag_36\n      jump\t// in\n    tag_49:\n        /* \"#utility.yul\":881:944   */\n      swap2\n      pop\n        /* \"#utility.yul\":836:954   */\n      pop\n        /* \"#utility.yul\":487:961   */\n      swap3\n      pop\n      swap3\n      swap1\n      pop\n      jump\t// out\n        /* \"#utility.yul\":967:1093   */\n    tag_50:\n        /* \"#utility.yul\":1062:1086   */\n      tag_52\n        /* \"#utility.yul\":1080:1085   */\n      dup2\n        /* \"#utility.yul\":1062:1086   */\n      tag_53\n      jump\t// in\n    tag_52:\n        /* \"#utility.yul\":1057:1060   */\n      dup3\n        /* \"#utility.yul\":1050:1087   */\n      mstore\n        /* \"#utility.yul\":967:1093   */\n      pop\n      pop\n      jump\t// out\n        /* \"#utility.yul\":1099:1337   */\n    tag_11:\n        /* \"#utility.yul\":1200:1204   */\n      0x00\n        /* \"#utility.yul\":1238:1240   */\n      0x20\n        /* \"#utility.yul\":1227:1236   */\n      dup3\n        /* \"#utility.yul\":1223:1241   */\n      add\n        /* \"#utility.yul\":1215:1241   */\n      swap1\n      pop\n        /* \"#utility.yul\":1251:1330   */\n      tag_55\n        /* \"#utility.yul\":1327:1328   */\n      0x00\n        /* \"#utility.yul\":1316:1325   */\n      dup4\n        /* \"#utility.yul\":1312:1329   */\n      add\n        /* \"#utility.yul\":1303:1309   */\n      dup5\n        /* \"#utility.yul\":1251:1330   */\n      tag_50\n      jump\t// in\n    tag_55:\n        /* \"#utility.yul\":1099:1337   */\n      swap3\n      swap2\n      pop\n      pop\n      jump\t// out\n        /* \"#utility.yul\":1424:1729   */\n    tag_30:\n        /* \"#utility.yul\":1464:1467   */\n      0x00\n        /* \"#utility.yul\":1483:1503   */\n      tag_59\n        /* \"#utility.yul\":1501:1502   */\n      dup3\n        /* \"#utility.yul\":1483:1503   */\n      tag_53\n      jump\t// in\n    tag_59:\n        /* \"#utility.yul\":1478:1503   */\n      swap2\n      pop\n        /* \"#utility.yul\":1517:1537   */\n      tag_60\n        /* \"#utility.yul\":1535:1536   */\n      dup4\n        /* \"#utility.yul\":1517:1537   */\n      tag_53\n      jump\t// in\n    tag_60:\n        /* \"#utility.yul\":1512:1537   */\n      swap3\n      pop\n        /* \"#utility.yul\":1671:1672   */\n      dup3\n        /* \"#utility.yul\":1603:1669   */\n      0xffffffffffffffffffffffffffffffffffffffffffffffffffffffffffffffff\n        /* \"#utility.yul\":1599:1673   */\n      sub\n        /* \"#utility.yul\":1596:1597   */\n      dup3\n        /* \"#utility.yul\":1593:1674   */\n      gt\n        /* \"#utility.yul\":1590:1697   */\n      iszero\n      tag_61\n      jumpi\n        /* \"#utility.yul\":1677:1695   */\n      tag_62\n      tag_63\n      jump\t// in\n    tag_62:\n        /* \"#utility.yul\":1590:1697   */\n    tag_61:\n        /* \"#utility.yul\":1721:1722   */\n      dup3\n        /* \"#utility.yul\":1718:1719   */\n      dup3\n        /* \"#utility.yul\":1714:1723   */\n      add\n        /* \"#utility.yul\":1707:1723   */\n      swap1\n      pop\n        /* \"#utility.yul\":1424:1729   */\n      swap3\n      swap2\n      pop\n      pop\n      jump\t// out\n        /* \"#utility.yul\":1735:1926   */\n    tag_27:\n        /* \"#utility.yul\":1775:1779   */\n      0x00\n        /* \"#utility.yul\":1795:1815   */\n      tag_65\n        /* \"#utility.yul\":1813:1814   */\n      dup3\n        /* \"#utility.yul\":1795:1815   */\n      tag_53\n      jump\t// in\n    tag_65:\n        /* \"#utility.yul\":1790:1815   */\n      swap2\n      pop\n        /* \"#utility.yul\":1829:1849   */\n      tag_66\n        /* \"#utility.yul\":1847:1848   */\n      dup4\n        /* \"#utility.yul\":1829:1849   */\n      tag_53\n      jump\t// in\n    tag_66:\n        /* \"#utility.yul\":1824:1849   */\n      swap3\n      pop\n        /* \"#utility.yul\":1868:1869   */\n      dup3\n        /* \"#utility.yul\":1865:1866   */\n      dup3\n        /* \"#utility.yul\":1862:1870   */\n      lt\n        /* \"#utility.yul\":1859:1893   */\n      iszero\n      tag_67\n      jumpi\n        /* \"#utility.yul\":1873:1891   */\n      tag_68\n      tag_63\n      jump\t// in\n    tag_68:\n        /* \"#utility.yul\":1859:1893   */\n    tag_67:\n        /* \"#utility.yul\":1918:1919   */\n      dup3\n        /* \"#utility.yul\":1915:1916   */\n      dup3\n        /* \"#utility.yul\":1911:1920   */\n      sub\n        /* \"#utility.yul\":1903:1920   */\n      swap1\n      pop\n        /* \"#utility.yul\":1735:1926   */\n      swap3\n      swap2\n      pop\n      pop\n      jump\t// out\n        /* \"#utility.yul\":1932:2009   */\n    tag_53:\n        /* \"#utility.yul\":1969:1976   */\n      0x00\n        /* \"#utility.yul\":1998:2003   */\n      dup2\n        /* \"#utility.yul\":1987:2003   */\n      swap1\n      pop\n        /* \"#utility.yul\":1932:2009   */\n      swap2\n      swap1\n      pop\n      jump\t// out\n        /* \"#utility.yul\":2015:2195   */\n    tag_63:\n        /* \"#utility.yul\":2063:2140   */\n      0x4e487b7100000000000000000000000000000000000000000000000000000000\n        /* \"#utility.yul\":2060:2061   */\n      0x00\n        /* \"#utility.yul\":2053:2141   */\n      mstore\n        /* \"#utility.yul\":2160:2164   */\n      0x11\n        /* \"#utility.yul\":2157:2158   */\n      0x04\n        /* \"#utility.yul\":2150:2165   */\n      mstore\n        /* \"#utility.yul\":2184:2188   */\n      0x24\n        /* \"#utility.yul\":2181:2182   */\n      0x00\n        /* \"#utility.yul\":2174:2189   */\n      revert\n        /* \"#utility.yul\":2324:2441   */\n    tag_43:\n        /* \"#utility.yul\":2433:2434   */\n      0x00\n        /* \"#utility.yul\":2430:2431   */\n      dup1\n        /* \"#utility.yul\":2423:2435   */\n      revert\n        /* \"#utility.yul\":2447:2569   */\n    tag_39:\n        /* \"#utility.yul\":2520:2544   */\n      tag_75\n        /* \"#utility.yul\":2538:2543   */\n      dup2\n        /* \"#utility.yul\":2520:2544   */\n      tag_53\n      jump\t// in\n    tag_75:\n        /* \"#utility.yul\":2513:2518   */\n      dup2\n        /* \"#utility.yul\":2510:2545   */\n      eq\n        /* \"#utility.yul\":2500:2563   */\n      tag_76\n      jumpi\n        /* \"#utility.yul\":2559:2560   */\n      0x00\n        /* \"#utility.yul\":2556:2557   */\n      dup1\n        /* \"#utility.yul\":2549:2561   */\n      revert\n        /* \"#utility.yul\":2500:2563   */\n    tag_76:\n        /* \"#utility.yul\":2447:2569   */\n      pop\n      jump\t// out\n\n    auxdata: 0xa2646970667358221220b5993880a66561642a3dfbfd64d7c5ccd526acff7b74a2b9c50d72dcf1332ef264736f6c63430008070033\n}\n",
				"bytecode": {
					"linkReferences": {},
					"object": "610334610053600b82828239805160001a607314610046577f4e487b7100000000000000000000000000000000000000000000000000000000600052600060045260246000fd5b30600052607381538281f3fe73000000000000000000000000000000000000000030146080604052600436106100565760003560e01c80633a9ebefd1461005b5780637669a6401461008b5780637cf5dab0146100bb578063dccce74d146100eb575b600080fd5b61007560048036038101906100709190610188565b61011b565b6040516100829190610204565b60405180910390f35b6100a560048036038101906100a091906101b5565b610131565b6040516100b29190610204565b60405180910390f35b6100d560048036038101906100d09190610188565b610147565b6040516100e29190610204565b60405180910390f35b610105600480360381019061010091906101b5565b61015d565b6040516101129190610204565b60405180910390f35b600060018261012a9190610275565b9050919050565b6000818361013f919061021f565b905092915050565b6000600182610156919061021f565b9050919050565b6000818361016b9190610275565b905092915050565b600081359050610182816102e7565b92915050565b60006020828403121561019e5761019d6102e2565b5b60006101ac84828501610173565b91505092915050565b600080604083850312156101cc576101cb6102e2565b5b60006101da85828601610173565b92505060206101eb85828601610173565b9150509250929050565b6101fe816102a9565b82525050565b600060208201905061021960008301846101f5565b92915050565b600061022a826102a9565b9150610235836102a9565b9250827fffffffffffffffffffffffffffffffffffffffffffffffffffffffffffffffff0382111561026a576102696102b3565b5b828201905092915050565b6000610280826102a9565b915061028b836102a9565b92508282101561029e5761029d6102b3565b5b828203905092915050565b6000819050919050565b7f4e487b7100000000000000000000000000000000000000000000000000000000600052601160045260246000fd5b600080fd5b6102f0816102a9565b81146102fb57600080fd5b5056fea2646970667358221220b5993880a66561642a3dfbfd64d7c5ccd526acff7b74a2b9c50d72dcf1332ef264736f6c63430008070033",
					"opcodes": "PUSH2 0x334 PUSH2 0x53 PUSH1 0xB DUP3 DUP3 DUP3 CODECOPY DUP1 MLOAD PUSH1 0x0 BYTE PUSH1 0x73 EQ PUSH2 0x46 JUMPI PUSH32 0x4E487B7100000000000000000000000000000000000000000000000000000000 PUSH1 0x0 MSTORE PUSH1 0x0 PUSH1 0x4 MSTORE PUSH1 0x24 PUSH1 0x0 REVERT JUMPDEST ADDRESS PUSH1 0x0 MSTORE PUSH1 0x73 DUP2 MSTORE8 DUP3 DUP2 RETURN INVALID PUSH20 0x0 ADDRESS EQ PUSH1 0x80 PUSH1 0x40 MSTORE PUSH1 0x4 CALLDATASIZE LT PUSH2 0x56 JUMPI PUSH1 0x0 CALLDATALOAD PUSH1 0xE0 SHR DUP1 PUSH4 0x3A9EBEFD EQ PUSH2 0x5B JUMPI DUP1 PUSH4 0x7669A640 EQ PUSH2 0x8B JUMPI DUP1 PUSH4 0x7CF5DAB0 EQ PUSH2 0xBB JUMPI DUP1 PUSH4 0xDCCCE74D EQ PUSH2 0xEB JUMPI JUMPDEST PUSH1 0x0 DUP1 REVERT JUMPDEST PUSH2 0x75 PUSH1 0x4 DUP1 CALLDATASIZE SUB DUP2 ADD SWAP1 PUSH2 0x70 SWAP2 SWAP1 PUSH2 0x188 JUMP JUMPDEST PUSH2 0x11B JUMP JUMPDEST PUSH1 0x40 MLOAD PUSH2 0x82 SWAP2 SWAP1 PUSH2 0x204 JUMP JUMPDEST PUSH1 0x40 MLOAD DUP1 SWAP2 SUB SWAP1 RETURN JUMPDEST PUSH2 0xA5 PUSH1 0x4 DUP1 CALLDATASIZE SUB DUP2 ADD SWAP1 PUSH2 0xA0 SWAP2 SWAP1 PUSH2 0x1B5 JUMP JUMPDEST PUSH2 0x131 JUMP JUMPDEST PUSH1 0x40 MLOAD PUSH2 0xB2 SWAP2 SWAP1 PUSH2 0x204 JUMP JUMPDEST PUSH1 0x40 MLOAD DUP1 SWAP2 SUB SWAP1 RETURN JUMPDEST PUSH2 0xD5 PUSH1 0x4 DUP1 CALLDATASIZE SUB DUP2 ADD SWAP1 PUSH2 0xD0 SWAP2 SWAP1 PUSH2 0x188 JUMP JUMPDEST PUSH2 0x147 JUMP JUMPDEST PUSH1 0x40 MLOAD PUSH2 0xE2 SWAP2 SWAP1 PUSH2 0x204 JUMP JUMPDEST PUSH1 0x40 MLOAD DUP1 SWAP2 SUB SWAP1 RETURN JUMPDEST PUSH2 0x105 PUSH1 0x4 DUP1 CALLDATASIZE SUB DUP2 ADD SWAP1 PUSH2 0x100 SWAP2 SWAP1 PUSH2 0x1B5 JUMP JUMPDEST PUSH2 0x15D JUMP JUMPDEST PUSH1 0x40 MLOAD PUSH2 0x112 SWAP2 SWAP1 PUSH2 0x204 JUMP JUMPDEST PUSH1 0x40 MLOAD DUP1 SWAP2 SUB SWAP1 RETURN JUMPDEST PUSH1 0x0 PUSH1 0x1 DUP3 PUSH2 0x12A SWAP2 SWAP1 PUSH2 0x275 JUMP JUMPDEST SWAP1 POP SWAP2 SWAP1 POP JUMP JUMPDEST PUSH1 0x0 DUP2 DUP4 PUSH2 0x13F SWAP2 SWAP1 PUSH2 0x21F JUMP JUMPDEST SWAP1 POP SWAP3 SWAP2 POP POP JUMP JUMPDEST PUSH1 0x0 PUSH1 0x1 DUP3 PUSH2 0x156 SWAP2 SWAP1 PUSH2 0x21F JUMP JUMPDEST SWAP1 POP SWAP2 SWAP1 POP JUMP JUMPDEST PUSH1 0x0 DUP2 DUP4 PUSH2 0x16B SWAP2 SWAP1 PUSH2 0x275 JUMP JUMPDEST SWAP1 POP SWAP3 SWAP2 POP POP JUMP JUMPDEST PUSH1 0x0 DUP2 CALLDATALOAD SWAP1 POP PUSH2 0x182 DUP2 PUSH2 0x2E7 JUMP JUMPDEST SWAP3 SWAP2 POP POP JUMP JUMPDEST PUSH1 0x0 PUSH1 0x20 DUP3 DUP5 SUB SLT ISZERO PUSH2 0x19E JUMPI PUSH2 0x19D PUSH2 0x2E2 JUMP JUMPDEST JUMPDEST PUSH1 0x0 PUSH2 0x1AC DUP5 DUP3 DUP6 ADD PUSH2 0x173 JUMP JUMPDEST SWAP2 POP POP SWAP3 SWAP2 POP POP JUMP JUMPDEST PUSH1 0x0 DUP1 PUSH1 0x40 DUP4 DUP6 SUB SLT ISZERO PUSH2 0x1CC JUMPI PUSH2 0x1CB PUSH2 0x2E2 JUMP JUMPDEST JUMPDEST PUSH1 0x0 PUSH2 0x1DA DUP6 DUP3 DUP7 ADD PUSH2 0x173 JUMP JUMPDEST SWAP3 POP POP PUSH1 0x20 PUSH2 0x1EB DUP6 DUP3 DUP7 ADD PUSH2 0x173 JUMP JUMPDEST SWAP2 POP POP SWAP3 POP SWAP3 SWAP1 POP JUMP JUMPDEST PUSH2 0x1FE DUP2 PUSH2 0x2A9 JUMP JUMPDEST DUP3 MSTORE POP POP JUMP JUMPDEST PUSH1 0x0 PUSH1 0x20 DUP3 ADD SWAP1 POP PUSH2 0x219 PUSH1 0x0 DUP4 ADD DUP5 PUSH2 0x1F5 JUMP JUMPDEST SWAP3 SWAP2 POP POP JUMP JUMPDEST PUSH1 0x0 PUSH2 0x22A DUP3 PUSH2 0x2A9 JUMP JUMPDEST SWAP2 POP PUSH2 0x235 DUP4 PUSH2 0x2A9 JUMP JUMPDEST SWAP3 POP DUP3 PUSH32 0xFFFFFFFFFFFFFFFFFFFFFFFFFFFFFFFFFFFFFFFFFFFFFFFFFFFFFFFFFFFFFFFF SUB DUP3 GT ISZERO PUSH2 0x26A JUMPI PUSH2 0x269 PUSH2 0x2B3 JUMP JUMPDEST JUMPDEST DUP3 DUP3 ADD SWAP1 POP SWAP3 SWAP2 POP POP JUMP JUMPDEST PUSH1 0x0 PUSH2 0x280 DUP3 PUSH2 0x2A9 JUMP JUMPDEST SWAP2 POP PUSH2 0x28B DUP4 PUSH2 0x2A9 JUMP JUMPDEST SWAP3 POP DUP3 DUP3 LT ISZERO PUSH2 0x29E JUMPI PUSH2 0x29D PUSH2 0x2B3 JUMP JUMPDEST JUMPDEST DUP3 DUP3 SUB SWAP1 POP SWAP3 SWAP2 POP POP JUMP JUMPDEST PUSH1 0x0 DUP2 SWAP1 POP SWAP2 SWAP1 POP JUMP JUMPDEST PUSH32 0x4E487B7100000000000000000000000000000000000000000000000000000000 PUSH1 0x0 MSTORE PUSH1 0x11 PUSH1 0x4 MSTORE PUSH1 0x24 PUSH1 0x0 REVERT JUMPDEST PUSH1 0x0 DUP1 REVERT JUMPDEST PUSH2 0x2F0 DUP2 PUSH2 0x2A9 JUMP JUMPDEST DUP2 EQ PUSH2 0x2FB JUMPI PUSH1 0x0 DUP1 REVERT JUMPDEST POP JUMP INVALID LOG2 PUSH5 0x6970667358 0x22 SLT KECCAK256 0xB5 SWAP10 CODESIZE DUP1 0xA6 PUSH6 0x61642A3DFBFD PUSH5 0xD7C5CCD526 0xAC SELFDESTRUCT PUSH28 0x74A2B9C50D72DCF1332EF264736F6C63430008070033000000000000 "
				},
				"gasEstimates": {
					"creation": {
						"codeDepositCost": "164000",
						"executionCost": "233",
						"totalCost": "164233"
					},
					"external": {
						"decrement(uint256)": "infinite",
						"decrementByValue(uint256,uint256)": "infinite",
						"increment(uint256)": "infinite",
						"incrementByValue(uint256,uint256)": "infinite"
					}
				},
				"methodIdentifiers": {
					"decrement(uint256)": "3a9ebefd",
					"decrementByValue(uint256,uint256)": "dccce74d",
					"increment(uint256)": "7cf5dab0",
					"incrementByValue(uint256,uint256)": "7669a640"
				}
			},
			"storageLayout": {
				"storage": [],
				"types": null
			},
			"userdoc": {
				"kind": "user",
				"methods": {},
				"version": 1
			}
		}
	}
}