{
	"data": {
		"bytecode": {
			"linkReferences": {},
			"object": "608060405263ffd2b900600160146101000a81548163ffffffff021916908363ffffffff16021790555034801561003557600080fd5b50600a8060008190555033600160006101000a81548173ffffffffffffffffffffffffffffffffffffffff021916908373ffffffffffffffffffffffffffffffffffffffff160217905550506108c6806100906000396000f3fe608060405234801561001057600080fd5b50600436106100885760003560e01c8063b6b55f251161005b578063b6b55f2514610103578063c47f00271461011f578063d285b7b41461013b578063d5dcf1271461015957610088565b806317d7de7c1461008d5780632e1a7d4d146100ab578063967e6e65146100c7578063b69ef8a8146100e5575b600080fd5b610095610175565b6040516100a291906105aa565b60405180910390f35b6100c560048036038101906100c0919061050b565b610207565b005b6100cf61028b565b6040516100dc91906105cc565b60405180910390f35b6100ed610295565b6040516100fa91906105cc565b60405180910390f35b61011d6004803603810190610118919061050b565b61029e565b005b610139600480360381019061013491906104c2565b61035b565b005b610143610375565b604051610150919061058f565b60405180910390f35b610173600480360381019061016e919061050b565b610381565b005b60606002805461018490610764565b80601f01602080910402602001604051908101604052809291908181526020018280546101b090610764565b80156101fd5780601f106101d2576101008083540402835291602001916101fd565b820191906000526020600020905b8154815290600101906020018083116101e057829003601f168201915b5050505050905090565b3373ffffffffffffffffffffffffffffffffffffffff16600160009054906101000a900473ffffffffffffffffffffffffffffffffffffffff1673ffffffffffffffffffffffffffffffffffffffff161461026157600080fd5b61026a8161038b565b15610288578060008082825461028091906106d8565b925050819055505b50565b6000600354905090565b60008054905090565b3373ffffffffffffffffffffffffffffffffffffffff16600160009054906101000a900473ffffffffffffffffffffffffffffffffffffffff1673ffffffffffffffffffffffffffffffffffffffff16146102f857600080fd5b806000808282546103099190610682565b925050819055507f2db947ef788961acc438340dbcb4e242f80d026b621b7c98ee306199503903828160005461033f91906106d8565b6000546040516103509291906105e7565b60405180910390a150565b806002908051906020019061037192919061039a565b5050565b60008060005411905090565b8060038190555050565b60008160005410159050919050565b8280546103a690610764565b90600052602060002090601f0160209004810192826103c8576000855561040f565b82601f106103e157805160ff191683800117855561040f565b8280016001018555821561040f579182015b8281111561040e5782518255916020019190600101906103f3565b5b50905061041c9190610420565b5090565b5b80821115610439576000816000905550600101610421565b5090565b600061045061044b84610635565b610610565b90508281526020810184848401111561046c5761046b610859565b5b610477848285610722565b509392505050565b600082601f83011261049457610493610854565b5b81356104a484826020860161043d565b91505092915050565b6000813590506104bc81610879565b92915050565b6000602082840312156104d8576104d7610863565b5b600082013567ffffffffffffffff8111156104f6576104f561085e565b5b6105028482850161047f565b91505092915050565b60006020828403121561052157610520610863565b5b600061052f848285016104ad565b91505092915050565b6105418161070c565b82525050565b600061055282610666565b61055c8185610671565b935061056c818560208601610731565b61057581610868565b840191505092915050565b61058981610718565b82525050565b60006020820190506105a46000830184610538565b92915050565b600060208201905081810360008301526105c48184610547565b905092915050565b60006020820190506105e16000830184610580565b92915050565b60006040820190506105fc6000830185610580565b6106096020830184610580565b9392505050565b600061061a61062b565b90506106268282610796565b919050565b6000604051905090565b600067ffffffffffffffff8211156106505761064f610825565b5b61065982610868565b9050602081019050919050565b600081519050919050565b600082825260208201905092915050565b600061068d82610718565b915061069883610718565b9250827fffffffffffffffffffffffffffffffffffffffffffffffffffffffffffffffff038211156106cd576106cc6107c7565b5b828201905092915050565b60006106e382610718565b91506106ee83610718565b925082821015610701576107006107c7565b5b828203905092915050565b60008115159050919050565b6000819050919050565b82818337600083830152505050565b60005b8381101561074f578082015181840152602081019050610734565b8381111561075e576000848401525b50505050565b6000600282049050600182168061077c57607f821691505b602082108114156107905761078f6107f6565b5b50919050565b61079f82610868565b810181811067ffffffffffffffff821117156107be576107bd610825565b5b80604052505050565b7f4e487b7100000000000000000000000000000000000000000000000000000000600052601160045260246000fd5b7f4e487b7100000000000000000000000000000000000000000000000000000000600052602260045260246000fd5b7f4e487b7100000000000000000000000000000000000000000000000000000000600052604160045260246000fd5b600080fd5b600080fd5b600080fd5b600080fd5b6000601f19601f8301169050919050565b61088281610718565b811461088d57600080fd5b5056fea2646970667358221220a6578ebc6490f6924bdf777c6d3a064816ab07bbbe0318459eeaf870b45d30bc64736f6c63430008070033",
			"opcodes": "PUSH1 0x80 PUSH1 0x40 MSTORE PUSH4 0xFFD2B900 PUSH1 0x1 PUSH1 0x14 PUSH2 0x100 EXP DUP2 SLOAD DUP2 PUSH4 0xFFFFFFFF MUL NOT AND SWAP1 DUP4 PUSH4 0xFFFFFFFF AND MUL OR SWAP1 SSTORE POP CALLVALUE DUP1 ISZERO PUSH2 0x35 JUMPI PUSH1 0x0 DUP1 REVERT JUMPDEST POP PUSH1 0xA DUP1 PUSH1 0x0 DUP2 SWAP1 SSTORE POP CALLER PUSH1 0x1 PUSH1 0x0 PUSH2 0x100 EXP DUP2 SLOAD DUP2 PUSH20 0xFFFFFFFFFFFFFFFFFFFFFFFFFFFFFFFFFFFFFFFF MUL NOT AND SWAP1 DUP4 PUSH20 0xFFFFFFFFFFFFFFFFFFFFFFFFFFFFFFFFFFFFFFFF AND MUL OR SWAP1 SSTORE POP POP PUSH2 0x8C6 DUP1 PUSH2 0x90 PUSH1 0x0 CODECOPY PUSH1 0x0 RETURN INVALID PUSH1 0x80 PUSH1 0x40 MSTORE CALLVALUE DUP1 ISZERO PUSH2 0x10 JUMPI PUSH1 0x0 DUP1 REVERT JUMPDEST POP PUSH1 0x4 CALLDATASIZE LT PUSH2 0x88 JUMPI PUSH1 0x0 CALLDATALOAD PUSH1 0xE0 SHR DUP1 PUSH4 0xB6B55F25 GT PUSH2 0x5B JUMPI DUP1 PUSH4 0xB6B55F25 EQ PUSH2 0x103 JUMPI DUP1 PUSH4 0xC47F0027 EQ PUSH2 0x11F JUMPI DUP1 PUSH4 0xD285B7B4 EQ PUSH2 0x13B JUMPI DUP1 PUSH4 0xD5DCF127 EQ PUSH2 0x159 JUMPI PUSH2 0x88 JUMP JUMPDEST DUP1 PUSH4 0x17D7DE7C EQ PUSH2 0x8D JUMPI DUP1 PUSH4 0x2E1A7D4D EQ PUSH2 0xAB JUMPI DUP1 PUSH4 0x967E6E65 EQ PUSH2 0xC7 JUMPI DUP1 PUSH4 0xB69EF8A8 EQ PUSH2 0xE5 JUMPI JUMPDEST PUSH1 0x0 DUP1 REVERT JUMPDEST PUSH2 0x95 PUSH2 0x175 JUMP JUMPDEST PUSH1 0x40 MLOAD PUSH2 0xA2 SWAP2 SWAP1 PUSH2 0x5AA JUMP JUMPDEST PUSH1 0x40 MLOAD DUP1 SWAP2 SUB SWAP1 RETURN JUMPDEST PUSH2 0xC5 PUSH1 0x4 DUP1 CALLDATASIZE SUB DUP2 ADD SWAP1 PUSH2 0xC0 SWAP2 SWAP1 PUSH2 0x50B JUMP JUMPDEST PUSH2 0x207 JUMP JUMPDEST STOP JUMPDEST PUSH2 0xCF PUSH2 0x28B JUMP JUMPDEST PUSH1 0x40 MLOAD PUSH2 0xDC SWAP2 SWAP1 PUSH2 0x5CC JUMP JUMPDEST PUSH1 0x40 MLOAD DUP1 SWAP2 SUB SWAP1 RETURN JUMPDEST PUSH2 0xED PUSH2 0x295 JUMP JUMPDEST PUSH1 0x40 MLOAD PUSH2 0xFA SWAP2 SWAP1 PUSH2 0x5CC JUMP JUMPDEST PUSH1 0x40 MLOAD DUP1 SWAP2 SUB SWAP1 RETURN JUMPDEST PUSH2 0x11D PUSH1 0x4 DUP1 CALLDATASIZE SUB DUP2 ADD SWAP1 PUSH2 0x118 SWAP2 SWAP1 PUSH2 0x50B JUMP JUMPDEST PUSH2 0x29E JUMP JUMPDEST STOP JUMPDEST PUSH2 0x139 PUSH1 0x4 DUP1 CALLDATASIZE SUB DUP2 ADD SWAP1 PUSH2 0x134 SWAP2 SWAP1 PUSH2 0x4C2 JUMP JUMPDEST PUSH2 0x35B JUMP JUMPDEST STOP JUMPDEST PUSH2 0x143 PUSH2 0x375 JUMP JUMPDEST PUSH1 0x40 MLOAD PUSH2 0x150 SWAP2 SWAP1 PUSH2 0x58F JUMP JUMPDEST PUSH1 0x40 MLOAD DUP1 SWAP2 SUB SWAP1 RETURN JUMPDEST PUSH2 0x173 PUSH1 0x4 DUP1 CALLDATASIZE SUB DUP2 ADD SWAP1 PUSH2 0x16E SWAP2 SWAP1 PUSH2 0x50B JUMP JUMPDEST PUSH2 0x381 JUMP JUMPDEST STOP JUMPDEST PUSH1 0x60 PUSH1 0x2 DUP1 SLOAD PUSH2 0x184 SWAP1 PUSH2 0x764 JUMP JUMPDEST DUP1 PUSH1 0x1F ADD PUSH1 0x20 DUP1 SWAP2 DIV MUL PUSH1 0x20 ADD PUSH1 0x40 MLOAD SWAP1 DUP2 ADD PUSH1 0x40 MSTORE DUP1 SWAP3 SWAP2 SWAP1 DUP2 DUP2 MSTORE PUSH1 0x20 ADD DUP3 DUP1 SLOAD PUSH2 0x1B0 SWAP1 PUSH2 0x764 JUMP JUMPDEST DUP1 ISZERO PUSH2 0x1FD JUMPI DUP1 PUSH1 0x1F LT PUSH2 0x1D2 JUMPI PUSH2 0x100 DUP1 DUP4 SLOAD DIV MUL DUP4 MSTORE SWAP2 PUSH1 0x20 ADD SWAP2 PUSH2 0x1FD JUMP JUMPDEST DUP3 ADD SWAP2 SWAP1 PUSH1 0x0 MSTORE PUSH1 0x20 PUSH1 0x0 KECCAK256 SWAP1 JUMPDEST DUP2 SLOAD DUP2 MSTORE SWAP1 PUSH1 0x1 ADD SWAP1 PUSH1 0x20 ADD DUP1 DUP4 GT PUSH2 0x1E0 JUMPI DUP3 SWAP1 SUB PUSH1 0x1F AND DUP3 ADD SWAP2 JUMPDEST POP POP POP POP POP SWAP1 POP SWAP1 JUMP JUMPDEST CALLER PUSH20 0xFFFFFFFFFFFFFFFFFFFFFFFFFFFFFFFFFFFFFFFF AND PUSH1 0x1 PUSH1 0x0 SWAP1 SLOAD SWAP1 PUSH2 0x100 EXP SWAP1 DIV PUSH20 0xFFFFFFFFFFFFFFFFFFFFFFFFFFFFFFFFFFFFFFFF AND PUSH20 0xFFFFFFFFFFFFFFFFFFFFFFFFFFFFFFFFFFFFFFFF AND EQ PUSH2 0x261 JUMPI PUSH1 0x0 DUP1 REVERT JUMPDEST PUSH2 0x26A DUP2 PUSH2 0x38B JUMP JUMPDEST ISZERO PUSH2 0x288 JUMPI DUP1 PUSH1 0x0 DUP1 DUP3 DUP3 SLOAD PUSH2 0x280 SWAP2 SWAP1 PUSH2 0x6D8 JUMP JUMPDEST SWAP3 POP POP DUP2 SWAP1 SSTORE POP JUMPDEST POP JUMP JUMPDEST PUSH1 0x0 PUSH1 0x3 SLOAD SWAP1 POP SWAP1 JUMP JUMPDEST PUSH1 0x0 DUP1 SLOAD SWAP1 POP SWAP1 JUMP JUMPDEST CALLER PUSH20 0xFFFFFFFFFFFFFFFFFFFFFFFFFFFFFFFFFFFFFFFF AND PUSH1 0x1 PUSH1 0x0 SWAP1 SLOAD SWAP1 PUSH2 0x100 EXP SWAP1 DIV PUSH20 0xFFFFFFFFFFFFFFFFFFFFFFFFFFFFFFFFFFFFFFFF AND PUSH20 0xFFFFFFFFFFFFFFFFFFFFFFFFFFFFFFFFFFFFFFFF AND EQ PUSH2 0x2F8 JUMPI PUSH1 0x0 DUP1 REVERT JUMPDEST DUP1 PUSH1 0x0 DUP1 DUP3 DUP3 SLOAD PUSH2 0x309 SWAP2 SWAP1 PUSH2 0x682 JUMP JUMPDEST SWAP3 POP POP DUP2 SWAP1 SSTORE POP PUSH32 0x2DB947EF788961ACC438340DBCB4E242F80D026B621B7C98EE30619950390382 DUP2 PUSH1 0x0 SLOAD PUSH2 0x33F SWAP2 SWAP1 PUSH2 0x6D8 JUMP JUMPDEST PUSH1 0x0 SLOAD PUSH1 0x40 MLOAD PUSH2 0x350 SWAP3 SWAP2 SWAP1 PUSH2 0x5E7 JUMP JUMPDEST PUSH1 0x40 MLOAD DUP1 SWAP2 SUB SWAP1 LOG1 POP JUMP JUMPDEST DUP1 PUSH1 0x2 SWAP1 DUP1 MLOAD SWAP1 PUSH1 0x20 ADD SWAP1 PUSH2 0x371 SWAP3 SWAP2 SWAP1 PUSH2 0x39A JUMP JUMPDEST POP POP JUMP JUMPDEST PUSH1 0x0 DUP1 PUSH1 0x0 SLOAD GT SWAP1 POP SWAP1 JUMP JUMPDEST DUP1 PUSH1 0x3 DUP2 SWAP1 SSTORE POP POP JUMP JUMPDEST PUSH1 0x0 DUP2 PUSH1 0x0 SLOAD LT ISZERO SWAP1 POP SWAP2 SWAP1 POP JUMP JUMPDEST DUP3 DUP1 SLOAD PUSH2 0x3A6 SWAP1 PUSH2 0x764 JUMP JUMPDEST SWAP1 PUSH1 0x0 MSTORE PUSH1 0x20 PUSH1 0x0 KECCAK256 SWAP1 PUSH1 0x1F ADD PUSH1 0x20 SWAP1 DIV DUP2 ADD SWAP3 DUP3 PUSH2 0x3C8 JUMPI PUSH1 0x0 DUP6 SSTORE PUSH2 0x40F JUMP JUMPDEST DUP3 PUSH1 0x1F LT PUSH2 0x3E1 JUMPI DUP1 MLOAD PUSH1 0xFF NOT AND DUP4 DUP1 ADD OR DUP6 SSTORE PUSH2 0x40F JUMP JUMPDEST DUP3 DUP1 ADD PUSH1 0x1 ADD DUP6 SSTORE DUP3 ISZERO PUSH2 0x40F JUMPI SWAP2 DUP3 ADD JUMPDEST DUP3 DUP2 GT ISZERO PUSH2 0x40E JUMPI DUP3 MLOAD DUP3 SSTORE SWAP2 PUSH1 0x20 ADD SWAP2 SWAP1 PUSH1 0x1 ADD SWAP1 PUSH2 0x3F3 JUMP JUMPDEST JUMPDEST POP SWAP1 POP PUSH2 0x41C SWAP2 SWAP1 PUSH2 0x420 JUMP JUMPDEST POP SWAP1 JUMP JUMPDEST JUMPDEST DUP1 DUP3 GT ISZERO PUSH2 0x439 JUMPI PUSH1 0x0 DUP2 PUSH1 0x0 SWAP1 SSTORE POP PUSH1 0x1 ADD PUSH2 0x421 JUMP JUMPDEST POP SWAP1 JUMP JUMPDEST PUSH1 0x0 PUSH2 0x450 PUSH2 0x44B DUP5 PUSH2 0x635 JUMP JUMPDEST PUSH2 0x610 JUMP JUMPDEST SWAP1 POP DUP3 DUP2 MSTORE PUSH1 0x20 DUP2 ADD DUP5 DUP5 DUP5 ADD GT ISZERO PUSH2 0x46C JUMPI PUSH2 0x46B PUSH2 0x859 JUMP JUMPDEST JUMPDEST PUSH2 0x477 DUP5 DUP3 DUP6 PUSH2 0x722 JUMP JUMPDEST POP SWAP4 SWAP3 POP POP POP JUMP JUMPDEST PUSH1 0x0 DUP3 PUSH1 0x1F DUP4 ADD SLT PUSH2 0x494 JUMPI PUSH2 0x493 PUSH2 0x854 JUMP JUMPDEST JUMPDEST DUP2 CALLDATALOAD PUSH2 0x4A4 DUP5 DUP3 PUSH1 0x20 DUP7 ADD PUSH2 0x43D JUMP JUMPDEST SWAP2 POP POP SWAP3 SWAP2 POP POP JUMP JUMPDEST PUSH1 0x0 DUP2 CALLDATALOAD SWAP1 POP PUSH2 0x4BC DUP2 PUSH2 0x879 JUMP JUMPDEST SWAP3 SWAP2 POP POP JUMP JUMPDEST PUSH1 0x0 PUSH1 0x20 DUP3 DUP5 SUB SLT ISZERO PUSH2 0x4D8 JUMPI PUSH2 0x4D7 PUSH2 0x863 JUMP JUMPDEST JUMPDEST PUSH1 0x0 DUP3 ADD CALLDATALOAD PUSH8 0xFFFFFFFFFFFFFFFF DUP2 GT ISZERO PUSH2 0x4F6 JUMPI PUSH2 0x4F5 PUSH2 0x85E JUMP JUMPDEST JUMPDEST PUSH2 0x502 DUP5 DUP3 DUP6 ADD PUSH2 0x47F JUMP JUMPDEST SWAP2 POP POP SWAP3 SWAP2 POP POP JUMP JUMPDEST PUSH1 0x0 PUSH1 0x20 DUP3 DUP5 SUB SLT ISZERO PUSH2 0x521 JUMPI PUSH2 0x520 PUSH2 0x863 JUMP JUMPDEST JUMPDEST PUSH1 0x0 PUSH2 0x52F DUP5 DUP3 DUP6 ADD PUSH2 0x4AD JUMP JUMPDEST SWAP2 POP POP SWAP3 SWAP2 POP POP JUMP JUMPDEST PUSH2 0x541 DUP2 PUSH2 0x70C JUMP JUMPDEST DUP3 MSTORE POP POP JUMP JUMPDEST PUSH1 0x0 PUSH2 0x552 DUP3 PUSH2 0x666 JUMP JUMPDEST PUSH2 0x55C DUP2 DUP6 PUSH2 0x671 JUMP JUMPDEST SWAP4 POP PUSH2 0x56C DUP2 DUP6 PUSH1 0x20 DUP7 ADD PUSH2 0x731 JUMP JUMPDEST PUSH2 0x575 DUP2 PUSH2 0x868 JUMP JUMPDEST DUP5 ADD SWAP2 POP POP SWAP3 SWAP2 POP POP JUMP JUMPDEST PUSH2 0x589 DUP2 PUSH2 0x718 JUMP JUMPDEST DUP3 MSTORE POP POP JUMP JUMPDEST PUSH1 0x0 PUSH1 0x20 DUP3 ADD SWAP1 POP PUSH2 0x5A4 PUSH1 0x0 DUP4 ADD DUP5 PUSH2 0x538 JUMP JUMPDEST SWAP3 SWAP2 POP POP JUMP JUMPDEST PUSH1 0x0 PUSH1 0x20 DUP3 ADD SWAP1 POP DUP2 DUP2 SUB PUSH1 0x0 DUP4 ADD MSTORE PUSH2 0x5C4 DUP2 DUP5 PUSH2 0x547 JUMP JUMPDEST SWAP1 POP SWAP3 SWAP2 POP POP JUMP JUMPDEST PUSH1 0x0 PUSH1 0x20 DUP3 ADD SWAP1 POP PUSH2 0x5E1 PUSH1 0x0 DUP4 ADD DUP5 PUSH2 0x580 JUMP JUMPDEST SWAP3 SWAP2 POP POP JUMP JUMPDEST PUSH1 0x0 PUSH1 0x40 DUP3 ADD SWAP1 POP PUSH2 0x5FC PUSH1 0x0 DUP4 ADD DUP6 PUSH2 0x580 JUMP JUMPDEST PUSH2 0x609 PUSH1 0x20 DUP4 ADD DUP5 PUSH2 0x580 JUMP JUMPDEST SWAP4 SWAP3 POP POP POP JUMP JUMPDEST PUSH1 0x0 PUSH2 0x61A PUSH2 0x62B JUMP JUMPDEST SWAP1 POP PUSH2 0x626 DUP3 DUP3 PUSH2 0x796 JUMP JUMPDEST SWAP2 SWAP1 POP JUMP JUMPDEST PUSH1 0x0 PUSH1 0x40 MLOAD SWAP1 POP SWAP1 JUMP JUMPDEST PUSH1 0x0 PUSH8 0xFFFFFFFFFFFFFFFF DUP3 GT ISZERO PUSH2 0x650 JUMPI PUSH2 0x64F PUSH2 0x825 JUMP JUMPDEST JUMPDEST PUSH2 0x659 DUP3 PUSH2 0x868 JUMP JUMPDEST SWAP1 POP PUSH1 0x20 DUP2 ADD SWAP1 POP SWAP2 SWAP1 POP JUMP JUMPDEST PUSH1 0x0 DUP2 MLOAD SWAP1 POP SWAP2 SWAP1 POP JUMP JUMPDEST PUSH1 0x0 DUP3 DUP3 MSTORE PUSH1 0x20 DUP3 ADD SWAP1 POP SWAP3 SWAP2 POP POP JUMP JUMPDEST PUSH1 0x0 PUSH2 0x68D DUP3 PUSH2 0x718 JUMP JUMPDEST SWAP2 POP PUSH2 0x698 DUP4 PUSH2 0x718 JUMP JUMPDEST SWAP3 POP DUP3 PUSH32 0xFFFFFFFFFFFFFFFFFFFFFFFFFFFFFFFFFFFFFFFFFFFFFFFFFFFFFFFFFFFFFFFF SUB DUP3 GT ISZERO PUSH2 0x6CD JUMPI PUSH2 0x6CC PUSH2 0x7C7 JUMP JUMPDEST JUMPDEST DUP3 DUP3 ADD SWAP1 POP SWAP3 SWAP2 POP POP JUMP JUMPDEST PUSH1 0x0 PUSH2 0x6E3 DUP3 PUSH2 0x718 JUMP JUMPDEST SWAP2 POP PUSH2 0x6EE DUP4 PUSH2 0x718 JUMP JUMPDEST SWAP3 POP DUP3 DUP3 LT ISZERO PUSH2 0x701 JUMPI PUSH2 0x700 PUSH2 0x7C7 JUMP JUMPDEST JUMPDEST DUP3 DUP3 SUB SWAP1 POP SWAP3 SWAP2 POP POP JUMP JUMPDEST PUSH1 0x0 DUP2 ISZERO ISZERO SWAP1 POP SWAP2 SWAP1 POP JUMP JUMPDEST PUSH1 0x0 DUP2 SWAP1 POP SWAP2 SWAP1 POP JUMP JUMPDEST DUP3 DUP2 DUP4 CALLDATACOPY PUSH1 0x0 DUP4 DUP4 ADD MSTORE POP POP POP JUMP JUMPDEST PUSH1 0x0 JUMPDEST DUP4 DUP2 LT ISZERO PUSH2 0x74F JUMPI DUP1 DUP3 ADD MLOAD DUP2 DUP5 ADD MSTORE PUSH1 0x20 DUP2 ADD SWAP1 POP PUSH2 0x734 JUMP JUMPDEST DUP4 DUP2 GT ISZERO PUSH2 0x75E JUMPI PUSH1 0x0 DUP5 DUP5 ADD MSTORE JUMPDEST POP POP POP POP JUMP JUMPDEST PUSH1 0x0 PUSH1 0x2 DUP3 DIV SWAP1 POP PUSH1 0x1 DUP3 AND DUP1 PUSH2 0x77C JUMPI PUSH1 0x7F DUP3 AND SWAP2 POP JUMPDEST PUSH1 0x20 DUP3 LT DUP2 EQ ISZERO PUSH2 0x790 JUMPI PUSH2 0x78F PUSH2 0x7F6 JUMP JUMPDEST JUMPDEST POP SWAP2 SWAP1 POP JUMP JUMPDEST PUSH2 0x79F DUP3 PUSH2 0x868 JUMP JUMPDEST DUP2 ADD DUP2 DUP2 LT PUSH8 0xFFFFFFFFFFFFFFFF DUP3 GT OR ISZERO PUSH2 0x7BE JUMPI PUSH2 0x7BD PUSH2 0x825 JUMP JUMPDEST JUMPDEST DUP1 PUSH1 0x40 MSTORE POP POP POP JUMP JUMPDEST PUSH32 0x4E487B7100000000000000000000000000000000000000000000000000000000 PUSH1 0x0 MSTORE PUSH1 0x11 PUSH1 0x4 MSTORE PUSH1 0x24 PUSH1 0x0 REVERT JUMPDEST PUSH32 0x4E487B7100000000000000000000000000000000000000000000000000000000 PUSH1 0x0 MSTORE PUSH1 0x22 PUSH1 0x4 MSTORE PUSH1 0x24 PUSH1 0x0 REVERT JUMPDEST PUSH32 0x4E487B7100000000000000000000000000000000000000000000000000000000 PUSH1 0x0 MSTORE PUSH1 0x41 PUSH1 0x4 MSTORE PUSH1 0x24 PUSH1 0x0 REVERT JUMPDEST PUSH1 0x0 DUP1 REVERT JUMPDEST PUSH1 0x0 DUP1 REVERT JUMPDEST PUSH1 0x0 DUP1 REVERT JUMPDEST PUSH1 0x0 DUP1 REVERT JUMPDEST PUSH1 0x0 PUSH1 0x1F NOT PUSH1 0x1F DUP4 ADD AND SWAP1 POP SWAP2 SWAP1 POP JUMP JUMPDEST PUSH2 0x882 DUP2 PUSH2 0x718 JUMP JUMPDEST DUP2 EQ PUSH2 0x88D JUMPI PUSH1 0x0 DUP1 REVERT JUMPDEST POP JUMP INVALID LOG2 PUSH5 0x6970667358 0x22 SLT KECCAK256 0xA6 JUMPI DUP15 0xBC PUSH5 0x90F6924BDF PUSH24 0x7C6D3A064816AB07BBBE0318459EEAF870B45D30BC64736F PUSH13 0x63430008070033000000000000 "
		},
		"gasEstimates": {
			"creation": {
				"codeDepositCost": "449200",
				"executionCost": "71188",
				"totalCost": "520388"
			},
			"external": {
				"balance()": "2504",
				"deposit(uint256)": "infinite",
				"getAge()": "2482",
				"getName()": "infinite",
				"loan()": "2493",
				"setAge(uint256)": "22586",
				"setName(string)": "infinite",
				"withdraw(uint256)": "infinite"
			}
		},
		"methodIdentifiers": {
			"balance()": "b69ef8a8",
			"deposit(uint256)": "b6b55f25",
			"getAge()": "967e6e65",
			"getName()": "17d7de7c",
			"loan()": "d285b7b4",
			"setAge(uint256)": "d5dcf127",
			"setName(string)": "c47f0027",
			"withdraw(uint256)": "2e1a7d4d"
		}
	},
	"abi": [
		{
			"anonymous": false,
			"inputs": [
				{
					"indexed": false,
					"internalType": "uint256",
					"name": "oldValue",
					"type": "uint256"
				},
				{
					"indexed": false,
					"internalType": "uint256",
					"name": "newValue",
					"type": "uint256"
				}
			],
			"name": "ValueChanged",
			"type": "event"
		},
		{
			"inputs": [],
			"name": "balance",
			"outputs": [
				{
					"internalType": "uint256",
					"name": "",
					"type": "uint256"
				}
			],
			"stateMutability": "view",
			"type": "function"
		},
		{
			"inputs": [
				{
					"internalType": "uint256",
					"name": "_amount",
					"type": "uint256"
				}
			],
			"name": "deposit",
			"outputs": [],
			"stateMutability": "nonpayable",
			"type": "function"
		},
		{
			"inputs": [],
			"name": "getAge",
			"outputs": [
				{
					"internalType": "uint256",
					"name": "",
					"type": "uint256"
				}
			],
			"stateMutability": "view",
			"type": "function"
		},
		{
			"inputs": [],
			"name": "getName",
			"outputs": [
				{
					"internalType": "string",
					"name": "",
					"type": "string"
				}
			],
			"stateMutability": "view",
			"type": "function"
		},
		{
			"inputs": [],
			"name": "loan",
			"outputs": [
				{
					"internalType": "bool",
					"name": "",
					"type": "bool"
				}
			],
			"stateMutability": "view",
			"type": "function"
		},
		{
			"inputs": [
				{
					"internalType": "uint256",
					"name": "_newAge",
					"type": "uint256"
				}
			],
			"name": "setAge",
			"outputs": [],
			"stateMutability": "nonpayable",
			"type": "function"
		},
		{
			"inputs": [
				{
					"internalType": "string",
					"name": "_newName",
					"type": "string"
				}
			],
			"name": "setName",
			"outputs": [],
			"stateMutability": "nonpayable",
			"type": "function"
		},
		{
			"inputs": [
				{
					"internalType": "uint256",
					"name": "_amount",
					"type": "uint256"
				}
			],
			"name": "withdraw",
			"outputs": [],
			"stateMutability": "nonpayable",
			"type": "function"
		}
	]
}